:020000040000FA
:060000000A128A11122809
:10000800FE00030E83120313A1000408A2000A08CD
:10001800A3007F08A4000A128A11722A0A128A1100
:10002800152883120313B601B701B801B901BA0143
:1000380083010A128A11B42F83120313A900043012
:100048002902031828282928EB2808302502031834
:100058002E282F28EB282603031D332834288F2821
:1000680079280130A700250A3B280310A70DFF3E79
:10007800031D39282708FF3AFF007F08831603135A
:100088008505EB280130A700250A4C280310A70D89
:10009800FF3E031D4A282708FF3AFF007F08831602
:1000A80003138605EB280130A700250A5D280310F5
:1000B800A70DFF3E031D5B282708FF3AFF007F08B6
:1000C800831603138705EB280130A700250A6E283D
:1000D8000310A70DFF3E031D6C282708FF3AFF00F9
:1000E8007F08831603138805EB282908A700A801B1
:1000F8002808003A03198128EB282708003A031931
:100108003528013A03194628033A03195728013AB2
:1001180003196828EB282608031D93289428EB2840
:10012800D5280130A700250A9B280310A70DFF3EFC
:10013800031D99282708FF007F08831603138504E9
:10014800EB280130A700250AAB280310A70DFF3EB6
:10015800031DA9282708FF007F08831603138604B8
:10016800EB280130A700250ABB280310A70DFF3E86
:10017800031DB9282708FF007F0883160313870487
:10018800EB280130A700250ACB280310A70DFF3E56
:10019800031DC9282708FF007F0883160313880456
:1001A800EB282908A700A8012808003A0319DD2828
:1001B800EB282708003A03199528013A0319A528BE
:1001C800033A0319B528013A0319C528EB28080092
:1001D800F400043074020318F228F328B529083013
:1001E80070020318F828F928B5297103031DFD28A2
:1001F800FE2855293F290130F200700A052903100D
:10020800F20DFF3E031D03297208FF007F088312C9
:1002180003138504B5290130F200700A152903106B
:10022800F20DFF3E031D13297208FF007F08831299
:1002380003138604B5290130F200700A252903103A
:10024800F20DFF3E031D23297208FF007F08831269
:1002580003138704B5290130F200700A3529031009
:10026800F20DFF3E031D33297208FF007F08831239
:1002780003138804B5297408F200F3017308003ADF
:1002880003194729B5297208003A0319FF28013ACA
:1002980003190F29033A03191F29013A03192F29B2
:1002A800B5297108031D59295A29B5299F290130F3
:1002B800F200700A61290310F20DFF3E031D5F2949
:1002C8007208FF3AFF007F08831203138505B529DA
:1002D8000130F200700A72290310F20DFF3E031D6F
:1002E80070297208FF3AFF007F08831203138605FE
:1002F800B5290130F200700A83290310F20DFF3E80
:10030800031D81297208FF3AFF007F088312031337
:100318008705B5290130F200700A94290310F20DFF
:10032800FF3E031D92297208FF3AFF007F088312DF
:1003380003138805B5297408F200F3017308003A1D
:100348000319A729B5297208003A03195B29013A4C
:1003580003196C29033A03197D29013A03198E29D7
:10036800B529080083120313A900043029020318D1
:10037800BE29BF29712A083025020318C429C529B6
:10038800712A2603031DC929CA29192A032A0130FB
:10039800A700250AD1290310A70DFF3E031DCF2969
:1003A8002708FF007F088504712A0130A700250A65
:1003B800DF290310A70DFF3E031DDD292708FF00D5
:1003C8007F088604712A0130A700250AED29031049
:1003D800A70DFF3E031DEB292708FF007F088704B0
:1003E800712A0130A700250AFB290310A70DFF3E3B
:1003F800031DF9292708FF007F088804712A2908A6
:10040800A700A8012808003A03190B2A712A27080F
:10041800003A0319CB29013A0319D929033A0319D8
:10042800E729013A0319F529712A2608031D1D2A0F
:100438001E2A712A5B2A0130A700250A252A0310E3
:10044800A70DFF3E031D232A2708FF3AFF007F0858
:100458008505712A0130A700250A342A0310A70D43
:10046800FF3E031D322A2708FF3AFF007F08860552
:10047800712A0130A700250A432A0310A70DFF3E61
:10048800031D412A2708FF3AFF007F088705712AC4
:100498000130A700250A522A0310A70DFF3E031DAD
:1004A800502A2708FF3AFF007F088805712A290883
:1004B800A700A8012808003A0319632A712A270807
:1004C800003A03191F2A013A03192E2A033A03197D
:1004D8003D2A013A03194C2A712A08000B08A0008A
:1004E80001300310A00CFF3E031D752A201C7D2A35
:1004F8007E2A932A3A08031D822A832A892A0A1205
:100508008A15C6270A128A118E2A0A128A15BD2749
:100518000A128A11FD30FF007F088B05EC2A0B1C9C
:10052800962A972AEC2A0430FF007F08F000013051
:100538000A128A11F9220A128A11003A031DA52A01
:10054800A62AC32A831203133708031DAC2AAD2A2F
:10055800B02AB701B70AE82A3A03031DB42AB52A14
:10056800C22A4B303B020318BA2ABB2AC22A0530DA
:10057800FF007F08BB07B601B60AE82AE82A05305B
:10058800FF007F08F00001300A128A11F9220A12CE
:100598008A11003A031DD12AD22AE82A83120313AA
:1005A8003708031DD82AD92ADA2AAD2A3A03031DA7
:1005B800DE2ADF2AC22A24303B02031CE42AE52A69
:1005C800C22A0530BB02BF2AFE30FF007F088B0518
:1005D800831203132408FF0023088A0022088400DA
:1005E800210E8300FE0E7E0E0900F3000430730214
:1005F8000318FF2A002B612B083070020318052B03
:10060800062B612B4B2B831203130508F100700A8C
:100618000F2B0310F10CFF3E031D0D2B7108013940
:10062800FF007F08F400652B831203130608F1000E
:10063800700A202B0310F10CFF3E031D1E2B7108BE
:100648000139FF007F08F400652B831203130708A4
:10065800F100700A312B0310F10CFF3E031D2F2B04
:1006680071080139FF007F08F400652B831203131A
:100678000808F100700A422B0310F10CFF3E031D1D
:10068800402B71080139FF007F08F400652B7308BF
:10069800F100F2017208003A0319532B652B710817
:1006A800003A0319072B013A0319182B033A0319C7
:1006B800292B013A03193A2B652BFF30FF007F08DD
:1006C800F4007408080083120313B1000A30A5006F
:1006D8000030A6003108AD00AE012D08A7002E0895
:1006E800A8000A128A11FF240A128A11831203131E
:1006F8002508FF007F08AF000A30A5000030A600DB
:100708003108AD00AE012D08A7002E08A8000A1276
:100718008A11D1230A128A11831203132508FF00B4
:100728007F08B000B2012F080A128A11D1260A12D6
:100738008A110D3083120313AE00FB30AD00AD0BF0
:10074800A32BAE0BA32B8312031330080A128A11B2
:1007580001270A128A110D3083120313AE00FB30F1
:10076800AD00AD0BB52BAE0BB52B0130FF007F08EC
:1007780083120313B20732303202031CC42BC52B79
:10078800972B0230FF007F08A500A60100300A124F
:100798008A11B6210A128A11080083120313AA01CA
:1007A800A61FD72BD82BDF2BA509A609A50A031945
:1007B800A60AAA01AA0AA81FE22BE32BEC2BA70979
:1007C800A809A70A0319A80A0130FF007F08AA068A
:1007D800AB01AC01250826040319F32BF42B2B2CB1
:1007E800A901A90A022C01300310A50DA60DFF3E90
:1007F800031DF82B0130FF007F08A907A61F052C51
:10080800062CF72B01300310AB0DAC0DFF3E031D7A
:10081800072C26082802031D132C25082702031C71
:10082800162C172C1E2C2508A7022608031CA80323
:10083800A8022B1401300310A60CA50CFF3E031DC3
:100848001F2C0130A902031D2A2C2B2C062C2A0848
:1008580003192F2C302C352CAB09AC09AB0A031922
:10086800AC0A2C08A6002B08A5000800F501F11F0A
:100878003E2C3F2C462CF009F109F00A0319F10A25
:10088800F501F50AF31F492C4A2C532CF209F309F8
:10089800F20A0319F30A0130FF007F08F506F60192
:1008A800F7017008710403195A2C5B2C922CF4017F
:1008B800F40A692C01300310F00DF10DFF3E031D01
:1008C8005F2C0130FF007F08F407F11F6C2C6D2CA2
:1008D8005E2C01300310F60DF70DFF3E031D6E2C44
:1008E80071087302031D7A2C70087202031C7D2C98
:1008F8007E2C852C7008F2027108031CF303F302A6
:10090800761401300310F10CF00CFF3E031D862C09
:100918000130F402031D912C922C6D2C75080319DB
:10092800962C972C9C2CF609F709F60A0319F70A56
:100938007708F1007608F0000800FC000A30F000A3
:100948000030F1007C08F800F9017808F200790815
:10095800F3000A128A115A250A128A117008FF0038
:100968007F08FA000A30F0000030F1007C08F80037
:10097800F9017808F2007908F3000A128A113A247A
:100988000A128A117008FF007F08FB00FD017A082F
:100998000A128A1160270A128A110D30F900FB30F9
:1009A800F800F80BD52CF90BD52CDA2C7B080A1299
:1009B8008A118A270A128A110D30F900FB30F800D3
:1009C800F80BE42CF90BE42CE92C0130FF007F082C
:1009D800FD0732307D02031CF22CF32CCB2C0230A5
:1009E800FF007F08F000F10100300A128A11EC20A4
:1009F8000A128A11080083120313AA01A81F052DE1
:100A0800062D0D2DA709A809A70A0319A80AAA01E6
:100A1800AA0AA61F102D112D162DA509A609A50A8B
:100A28000319A60A2508260403191B2D1C2D4B2D76
:100A3800A901A90A2A2D01300310A50DA60DFF3E14
:100A4800031D202D0130FF007F08A907A61F2D2DAB
:100A58002E2D1F2D26082802031D342D25082702B8
:100A6800031C372D382D3E2D2508A7022608031C08
:100A7800A803A80201300310A60CA50CFF3E031D15
:100A88003F2D0130A902031D4A2D4B2D2E2D2A087A
:100A980003194F2D502D552DA709A809A70A031989
:100AA800A80A2808A6002708A5000800F501F31FD2
:100AB8005E2D5F2D662DF209F309F20A0319F30A78
:100AC800F501F50AF11F692D6A2D6F2DF009F1095D
:100AD800F00A0319F10A700871040319742D752DB1
:100AE800A42DF401F40A832D01300310F00DF10D4B
:100AF800FF3E031D792D0130FF007F08F407F11F29
:100B0800862D872D782D71087302031D8D2D700891
:100B18007202031C902D912D972D7008F202710816
:100B2800031CF303F30201300310F10CF00CFF3E39
:100B3800031D982D0130F402031DA32DA42D872D2C
:100B480075080319A82DA92DAE2DF209F309F20A8B
:100B58000319F30A7308F1007208F0000800023064
:100B6800FF007F0883120313A500A601A60A003020
:100B78000A128A1120200A128A110330FF007F0806
:100B880083120313A500A601A60A00300A128A11CF
:100B980020200A128A1183120313A50103300A12B6
:100BA8008A11FC250A128A110230FF007F0883127D
:100BB8000313A500A60100300A128A11B6210A12F1
:100BC8008A110330FF007F0883120313A500A601D2
:100BD80000300A128A11B6210A128A1183120313ED
:100BE800A50100300A128A1131270A128A11080059
:100BF80083120313A8001C2E2508FF007F08831604
:100C080003138500322E2508FF007F08831603137F
:100C18008600322E2508FF007F08831603138700FD
:100C2800322E2508FF007F08831603138800322E12
:100C38002808A600A7012708003A0319242E322EF7
:100C48002608003A0319002E013A0319072E033A21
:100C580003190E2E013A0319152E322E080083129D
:100C680003133A03031D392E3A2E692E3703031D49
:100C78003E2E3F2E692EB5013B080A128A116723C2
:100C88000A128A110A128A11DB270A128A11823083
:100C980083120313B400DD30B300B30B512EB40B31
:100CA800512E831203133603031D5B2E5C2E5E2E1A
:100CB800B501B6010130FF007F08B50705303502E0
:100CC800031C672E682E402EB7010800F300882EFB
:100CD8007008FF007F088312031385009E2E70089A
:100CE800FF007F088312031386009E2E7008FF0002
:100CF8007F088312031387009E2E7008FF007F0869
:100D08008312031388009E2E7308F100F201720803
:100D1800003A0319902E9E2E7108003A03196C2E82
:100D2800013A0319732E033A03197A2E013A03196B
:100D3800812E9E2E080083120313A501A6010130FF
:100D48000A128A1120200A128A110430FF007F0833
:100D580083120313A500A60101300A128A1120206C
:100D68000A128A110530FF007F0883120313A500B9
:100D7800A60101300A128A1120200A128A117F3036
:100D8800FF007F08831603138105BF30FF007F082B
:100D980081050B168B158B17080083120313AA0005
:100DA8000230FF007F08A500A60100300A128A1150
:100DB800B6210A128A110330FF007F088312031339
:100DC800A500A601A60A00300A128A11B6210A1245
:100DD8008A11831203132A08013E84000A128A1515
:100DE80000200A128A11FF007F08A50003300A12AA
:100DF8008A1131270A128A11080083120313AA00E4
:100E08000330FF007F08A500A60100300A128A11EE
:100E1800B6210A128A110230FF007F0883120313D9
:100E2800A500A601A60A00300A128A11B6210A12E4
:100E38008A11831203132A080B3E84000A128A15AA
:100E480000200A128A11FF007F08A50003300A1249
:100E58008A1131270A128A11080083120313A80085
:100E6800492F2508FF007F0885005F2F2508FF0010
:100E78007F0886005F2F2508FF007F0887005F2F07
:100E88002508FF007F0888005F2F2808A600A70113
:100E98002708003A0319512F5F2F2608003A031933
:100EA800352F013A03193A2F033A03193F2F013A14
:100EB8000319442F5F2F0800F5000230FF007F0858
:100EC800F000F10100300A128A11EC200A128A118E
:100ED8000330FF007F08F000F101F10A00300A1228
:100EE8008A11EC200A128A117508013E84000A1240
:100EF8008A1500200A128A11FF007F08F0000330CB
:100F08000A128A116A260A128A110800F5000330AB
:100F1800FF007F08F000F10100300A128A11EC206E
:100F28000A128A110230FF007F08F000F101F10A6D
:100F380000300A128A11EC200A128A1175080B3E39
:100F480084000A128A1500200A128A11FF007F08FD
:100F5800F00003300A128A116A260A128A11080060
:100F68000A128A15D1270A128A110A128A119F2693
:100F78000A128A110A128A11B3250A128A110A1250
:100F88008A11F6270A128A110A128A15DC270A1210
:100F98008A11013A031DD12FD22FC82F0A128A11A4
:100FA80033260A128A11C82F0A128A11122802300F
:100FB800FF007F0883120313A500A60100300A1260
:100FC8008A11B6210A128A110330FF007F088312A2
:100FD8000313A500A60100300A128A11B6210A12CD
:100FE8008A11080083120313BA010A128A11DB2737
:060FF8000A128A11080034
:1010000008308A000408840A820700343F3406341A
:101010005B344F3466346D347D3407347F346F3441
:101020003F3406345B344F3466346D347D340734DA
:041030007F346F3466
:101F7A0083120313BA010A128A15E9270A128A156B
:101F8A00080083120313BA01BA0A3B080A128A111B
:101F9A00A1240A128A15080083120313BA013C30DD
:101FAA00FF007F08BB00B801B701B6010800831221
:101FBA0003133703031DE22FE32FE62FB901B90AF2
:101FCA00E72FB901390808000230FF007F08F00046
:101FDA00F10100300A128A11EC200A128A15033024
:101FEA00FF007F08F000F10100300A128A11EC208C
:061FFA000A128A1508001E
:02400E00713F00
:00000001FF
