:020000040000FA
:060000000A128A11F02F24
:100D0E00043404340A128A119B260A128A1183169D
:100D1E000313111408000A128A119B260A128A1153
:100D2E008316031311150800831603131419A02E2E
:100D3E00A12E9B2E11081F39031DA62EA72E9B2E0A
:100D4E000800F0000A128A119B260A128A117008F6
:100D5E00FF007F088312031393000800F1000A12AC
:100D6E008A1189260A128A11A0300A128A11A8261F
:100D7E000A128A1100300A128A11A8260A128A1142
:100D8E0071080A128A11A8260A128A110A128A11E9
:100D9E0092260A128A1108000430FF007F0883167B
:100DAE00031393002830FF007F088312031394006F
:100DBE008316031394010330FF007F08F000F10146
:100DCE0002300A128A1126270A128A110430FF00F5
:100DDE007F08F000F10102300A128A1126270A124A
:100DEE008A1108000A128A11D3260A128A110D30AE
:100DFE00F700AF30F600B630F500F50B042FF60B0A
:100E0E00042FF70B042F00007B08F9007A08F80076
:100E1E0072300A128A11B5260A128A111A30F70098
:100E2E005E30F6006E30F500F50B1B2FF60B1B2F08
:100E3E00F70B1B2F00000F2F0A128A110028F40047
:100E4E000430740203182C2F2D2FEF2F0830700250
:100E5E000318322F332FEF2F7103031D372F382F27
:100E6E00932F7D2F0130F200700A3F2F0310F20DE9
:100E7E00FF3E031D3D2F7208FF3AFF007F088316C9
:100E8E0003138505EF2F0130F200700A502F031067
:100E9E00F20DFF3E031D4E2F7208FF3AFF007F0832
:100EAE00831603138605EF2F0130F200700A612FAF
:100EBE000310F20DFF3E031D5F2F7208FF3AFF0075
:100ECE007F08831603138705EF2F0130F200700A97
:100EDE00722F0310F20DFF3E031D702F7208FF3AA2
:100EEE00FF007F08831603138805EF2F7408F200A6
:100EFE00F3017308003A0319852FEF2F7208003A99
:100F0E000319392F013A03194A2F033A03195B2F9C
:100F1E00013A03196C2FEF2F7108031D972F982F8D
:100F2E00EF2FD92F0130F200700A9F2F0310F20D10
:100F3E00FF3E031D9D2F7208FF007F0883160313CB
:100F4E008504EF2F0130F200700AAF2F0310F20D5F
:100F5E00FF3E031DAD2F7208FF007F08831603139B
:100F6E008604EF2F0130F200700ABF2F0310F20D2E
:100F7E00FF3E031DBD2F7208FF007F08831603136B
:100F8E008704EF2F0130F200700ACF2F0310F20DFD
:100F9E00FF3E031DCD2F7208FF007F08831603133B
:100FAE008804EF2F7408F200F3017308003A031956
:100FBE00E12FEF2F7208003A0319992F013A031906
:100FCE00A92F033A0319B92F013A0319C92FEF2F8D
:100FDE0008000A128A1187260A128A11FA000A12CA
:100FEE008A1188260A128A11FB0083010A128A11BD
:020FFE00F92ECA
:02400E00713F00
:00000001FF
