:020000040000FA
:060000000A128A11F02F24
:100D120064345A340A128A119D260A128A118316E1
:100D22000313111408000A128A119D260A128A114D
:100D32008316031311150800831603131419A22E28
:100D4200A32E9D2E11081F39031DA82EA92E9D2EFC
:100D52000800F0000A128A119D260A128A117008F0
:100D6200FF007F088312031393000800F1000A12A8
:100D72008A118B260A128A11A0300A128A11AA2617
:100D82000A128A1100300A128A11AA260A128A113C
:100D920071080A128A11AA260A128A1171080A1205
:100DA2008A11AA260A128A110A128A1194260A1292
:100DB2008A1108000A128A1100270A128A11413088
:100DC200F600EE30F500F50BE42EF60BE42E0000F3
:100DD2007A08F8007908F700FF300A128A11B7265C
:100DE2000A128A118230F600DD30F500F50BF72E7B
:100DF200F60BF72EFC2EED2E0A128A110028043073
:100E0200FF007F088316031393002830FF007F083A
:100E12008312031394008316031394010330FF001B
:100E22007F08F000F10102300A128A1126270A1205
:100E32008A110430FF007F08F000F10102300A122B
:100E42008A1126270A128A110800F400043074025B
:100E520003182C2F2D2FEF2F083070020318322F7A
:100E6200332FEF2F7103031D372F382F932F7D2F31
:100E72000130F200700A3F2F0310F20DFF3E031DF6
:100E82003D2F7208FF3AFF007F0883160313850582
:100E9200EF2F0130F200700A502F0310F20DFF3EC7
:100EA200031D4E2F7208FF3AFF007F0883160313BB
:100EB2008605EF2F0130F200700A612F0310F20D48
:100EC200FF3E031D5F2F7208FF3AFF007F08831663
:100ED20003138705EF2F0130F200700A722F0310FF
:100EE200F20DFF3E031D702F7208FF3AFF007F08CC
:100EF200831603138805EF2F7408F200F3017308B9
:100F0200003A0319852FEF2F7208003A0319392F7F
:100F1200013A03194A2F033A03195B2F013A0319C5
:100F22006C2FEF2F7108031D972F982FEF2FD92FBA
:100F32000130F200700A9F2F0310F20DFF3E031DD5
:100F42009D2F7208FF007F08831603138504EF2F7D
:100F52000130F200700AAF2F0310F20DFF3E031DA5
:100F6200AD2F7208FF007F08831603138604EF2F4C
:100F72000130F200700ABF2F0310F20DFF3E031D75
:100F8200BD2F7208FF007F08831603138704EF2F1B
:100F92000130F200700ACF2F0310F20DFF3E031D45
:100FA200CD2F7208FF007F08831603138804EF2FEA
:100FB2007408F200F3017308003A0319E12FEF2FCE
:100FC2007208003A0319992F013A0319A92F033A1B
:100FD2000319B92F013A0319C92FEF2F08000A127A
:100FE2008A1189260A128A11F9000A128A118A269E
:0E0FF2000A128A11FA0083010A128A11DB2EFC
:02400E00713F00
:00000001FF
