:020000040000FA
:060000000A128A11122809
:10000800FE00030E83120313D5000408D6000A0865
:10001800D7007F08D8000A128A117C2C0A128A118C
:10002800152883132030840049300A128A15D423F6
:100038000A128A1183010A128A11012C2228FF0050
:1000480000308A007F08820728280A128A159B2C0C
:100058000A128A15DB2D0A128A15BB2D0A128A117B
:100068003E280A128A15A62B0A128A15802D0A1212
:100078008A117B2B0A128A159F230A128A1183126E
:100088000313CE014703031D4A284B2828290230B1
:100098000A128A15A4260A128A11710883120313F8
:1000A800BC007008BB003B08F0003C08F100F201FE
:1000B800F3010030F7000030F6001330F500883007
:1000C800F4000A128A11CC260A128A1170088312C7
:1000D8000313C9007108CA007208CB007308CC006A
:1000E8000A300310CC0CCB0CCA0CC90CFF3E031D04
:1000F80075284A08BA004908B9000A30F0000030EB
:10010800F1003A08F3003908F2000A128A1112279E
:100118000A128A117008FF007F0883120313C300B4
:100128004308FF0042082F3E84007F0883138000A5
:100138000130FF007F08C2070A304206031DA528C8
:10014800A6282029C201CD014D082F3E84004E0863
:100158000007FF007F08CE000130FF007F08CD07B1
:100168000A304D02031CB928BA28A8280A30F00022
:100178000030F1004E08C900CA014908F2004A08D7
:10018800F3000A128A115F250A128A117008FF000B
:100198007F0883120313CE004E08C900CA014A081B
:1001A800CC0048084902CB00031CCC034C08803A19
:1001B800FF0080307F02031DE32805304B02031C3B
:1001C800E628E728F2280A128A1558240A128A1102
:1001D8000A128A1532240A128A112029831203135B
:1001E8004808C900CA014A08CC004E084902CB0099
:1001F800031CCC034C08803AFF0080307F02031DAB
:10020800072905304B02031C0A290B2916290A1253
:100218008A1565240A128A110A128A1526240A12D6
:100228008A1120290A128A1526240A128A110A120A
:100238008A1532240A128A118312031343080A12F8
:100248008A11C6250A128A11080083120313DD00D9
:1002580004305D02031831293229F4290830590283
:10026800031837293829F4295A03031D3C293D2945
:10027800982982290130DB00590A44290310DB0D33
:10028800FF3E031D42295B08FF3AFF007F088316E3
:1002980003138505F4290130DB00590A5529031099
:1002A800DB0DFF3E031D53295B08FF3AFF007F0863
:1002B800831603138605F4290130DB00590A6629E1
:1002C8000310DB0DFF3E031D64295B08FF3AFF00A6
:1002D8007F08831603138705F4290130DB00590AC8
:1002E80077290310DB0DFF3E031D75295B08FF3AD4
:1002F800FF007F08831603138805F4295D08DB00D7
:10030800DC015C08003A03198A29F4295B08003AE1
:1003180003193E29013A03194F29033A03196029A1
:10032800013A03197129F4295A08031D9C299D29AA
:10033800F429DE290130DB00590AA4290310DB0D5A
:10034800FF3E031DA2295B08FF007F0883160313E5
:100358008504F4290130DB00590AB4290310DB0DA8
:10036800FF3E031DB2295B08FF007F0883160313B5
:100378008604F4290130DB00590AC4290310DB0D77
:10038800FF3E031DC2295B08FF007F088316031385
:100398008704F4290130DB00590AD4290310DB0D46
:1003A800FF3E031DD2295B08FF007F088316031355
:1003B8008804F4295D08DB00DC015C08003A0319B5
:1003C800E629F4295B08003A03199E29013A031922
:1003D800AE29033A0319BE29013A0319CE29F42993
:1003E8000800F400043074020318FB29FC29BE2A13
:1003F800083070020318012A022ABE2A7103031D5D
:10040800062A072A5E2A482A0130F200700A0E2AB4
:100418000310F20DFF3E031D0C2A7208FF007F082F
:10042800831203138504BE2A0130F200700A1E2AC3
:100438000310F20DFF3E031D1C2A7208FF007F08FF
:10044800831203138604BE2A0130F200700A2E2A92
:100458000310F20DFF3E031D2C2A7208FF007F08CF
:10046800831203138704BE2A0130F200700A3E2A61
:100478000310F20DFF3E031D3C2A7208FF007F089F
:10048800831203138804BE2A7408F200F301730868
:10049800003A0319502ABE2A7208003A0319082A9A
:1004A800013A0319182A033A0319282A013A0319A9
:1004B800382ABE2A7108031D622A632ABE2AA82A7E
:1004C8000130F200700A6A2A0310F20DFF3E031D84
:1004D800682A7208FF3AFF007F0883120313850514
:1004E800BE2A0130F200700A7B2A0310F20DFF3E8B
:1004F800031D792A7208FF3AFF007F08831203134D
:100508008605BE2A0130F200700A8C2A0310F20D0B
:10051800FF3E031D8A2A7208FF3AFF007F088312F4
:1005280003138705BE2A0130F200700A9D2A0310C2
:10053800F20DFF3E031D9B2A7208FF3AFF007F0859
:10054800831203138805BE2A7408F200F3017308A6
:10055800003A0319B02ABE2A7208003A0319642A1D
:10056800013A0319752A033A0319862A013A03192D
:10057800972ABE2A080083120313DD0004305D02A7
:100588000318C72AC82A7A2B083059020318CD2A1B
:10059800CE2A7A2B5A03031DD22AD32A222B0C2BBC
:1005A8000130DB00590ADA2A0310DB0DFF3E031D78
:1005B800D82A5B08FF007F0885047A2B0130DB000E
:1005C800590AE82A0310DB0DFF3E031DE62A5B08E3
:1005D800FF007F0886047A2B0130DB00590AF62ACF
:1005E8000310DB0DFF3E031DF42A5B08FF007F08A4
:1005F80087047A2B0130DB00590A042B0310DB0D2A
:10060800FF3E031D022B5B08FF007F0888047A2B3E
:100618005D08DB00DC015C08003A0319142B7A2B17
:100628005B08003A0319D42A013A0319E22A033A6B
:100638000319F02A013A0319FE2A7A2B5A08031DD6
:10064800262B272B7A2B642B0130DB00590A2E2B03
:100658000310DB0DFF3E031D2C2B5B08FF3AFF0048
:100668007F0885057A2B0130DB00590A3D2B0310E2
:10067800DB0DFF3E031D3B2B5B08FF3AFF007F08A5
:1006880086057A2B0130DB00590A4C2B0310DB0D51
:10069800FF3E031D4A2B5B08FF3AFF007F088705D2
:1006A8007A2B0130DB00590A5B2B0310DB0DFF3E70
:1006B800031D592B5B08FF3AFF007F0888057A2B3A
:1006C8005D08DB00DC015C08003A03196C2B7A2B0F
:1006D8005B08003A0319282B013A0319372B033A10
:1006E8000319462B013A0319552B7A2B080083125C
:1006F8000313D301D3010530FF007F08F00053082E
:100708000A128A15D4240A128A11223E84008313FD
:10071800000883120313CF00840A0008D0004F0892
:100728005004031D982B992BDF2B0530FF007F0801
:10073800F00053080A128A15D4240A128A11243E9A
:100748008400831300080A128A1123200A128A11CE
:100758000530FF007F08F0008312031353080A12C4
:100768008A15D4240A128A11203E840083130008B3
:1007780083120313CF00840A0008D0004F08FF3EFD
:10078800D10050080318013EFF3ED2000530FF009B
:100798007F08F00053080A128A15D4240A128A1115
:1007A800223E840083120313510883138000840AB5
:1007B80052088000F42B0530FF007F08F000530832
:1007C8000A128A15D4240A128A11223E84000130A2
:1007D80083138002840F0030031C8003800284038B
:1007E8000130FF007F0883120313D307033053023D
:1007F800031CFF2B002C7F2B08000A128A15642586
:100808000A128A110A128A1548250A128A110A122E
:100818008A15C1240A128A110A128A157A260A121E
:100828008A110A128A1530270A128A110A128A11A5
:1008380099270A128A110A128A15F7230A128A11AD
:100848000A128A1562270A128A110A128A15AE2418
:100858000A128A110A128A15FD250A128A110A1229
:100868008A15AD230A128A11E83083160313A000F3
:100878000330A1000030A200A3001030FF007F0861
:10088800A40000300A128A1156270A128A1164300D
:1008980083160313A0000030A1002C30A200013001
:1008A800A3000A30FF007F08A40002300A128A1150
:1008B80056270A128A11C83083160313A000003085
:1008C800A100C830A2000030A3000D30FF007F084F
:1008D800A40001300A128A1156270A128A110A1234
:1008E8008A15E9240A128A11782C0A128A11122808
:1008F8000B08D40001300310D40CFF3E031D7F2CDD
:10090800541C872C882C932C40080A128A11232007
:100918000A128A11FD30FF007F088B05E42C0B1C9E
:10092800962C972CCB2C0430FF007F08F000013068
:100938000A128A11F1240A128A11003A031DA52C01
:10094800A62CAF2C831203133F080A128A11232006
:100958000A128A11C62C0530FF007F08F00001300A
:100968000A128A11F1240A128A11003A031DBD2CB9
:10097800BE2CC62C831203133E080A128A112320A8
:100988000A128A11FE30FF007F088B05E42C0C0840
:10099800D40002300310D40CFF3E031DCE2C541C8F
:1009A800D62CD72CE42C41080A128A1123200A12CB
:1009B8008A11FB30FF007F08831203138C05E42C97
:1009C800831203135808FF0057088A00560884004A
:1009D800550E8300FE0E7E0E0900F30004307302EC
:1009E8000318F72CF82C592D083070020318FD2C29
:1009F800FE2C592D432D831203130508F100700AAC
:100A0800072D0310F10CFF3E031D052D7108013958
:100A1800FF007F08F4005D2D831203130608F10020
:100A2800700A182D0310F10CFF3E031D162D7108D6
:100A38000139FF007F08F4005D2D831203130708B6
:100A4800F100700A292D0310F10CFF3E031D272D1C
:100A580071080139FF007F08F4005D2D831203132C
:100A68000808F100700A3A2D0310F10CFF3E031D2F
:100A7800382D71080139FF007F08F4005D2D7308D7
:100A8800F100F2017208003A03194B2D5D2D71082F
:100A9800003A0319FF2C013A0319102D033A0319E0
:100AA800212D013A0319322D5D2DFF30FF007F08FB
:100AB800F40074080800F501F11F632D642D6B2DF7
:100AC800F009F109F00A0319F10AF501F50AF31F13
:100AD8006E2D6F2D782DF209F309F20A0319F30A26
:100AE8000130FF007F08F506F601F7017008710470
:100AF80003197F2D802DB72DF401F40A8E2D0130B6
:100B08000310F00DF10DFF3E031D842D0130FF0091
:100B18007F08F407F11F912D922D832D01300310CA
:100B2800F60DF70DFF3E031D932D71087302031D8B
:100B38009F2D70087202031CA22DA32DAA2D7008E8
:100B4800F2027108031CF303F30276140130031058
:100B5800F10CF00CFF3E031DAB2D0130F402031D18
:100B6800B62DB72D922D75080319BB2DBC2DC12D9F
:100B7800F609F709F60A0319F70A7708F100760863
:100B8800F0000800FC000A30F0000030F1007C089A
:100B9800F800F9017808F2007908F3000A128A11BE
:100BA80024260A128A117008FF007F08FA000A300A
:100BB800F0000030F1007C08F800F9017808F20034
:100BC8007908F3000A128A115F250A128A1170083F
:100BD800FF007F08FB00FD017A080A128A155026DB
:100BE8000A128A111A30F900F830F800F80BFA2DB9
:100BF800F90BFA2D00007B080A128A1526260A121C
:100C08008A111A30F900F830F800F80B092EF90BA0
:100C1800092E00000130FF007F08FD0732307D02F9
:100C2800031C172E182EF02D0430FF007F08F0004B
:100C3800F10100300A128A11F5210A128A110800FE
:100C4800F501F31F282E292E302EF209F309F20A96
:100C58000319F30AF501F50AF11F332E342E392E44
:100C6800F009F109F00A0319F10A7008710403196F
:100C78003E2E3F2E6E2EF401F40A4D2E0130031045
:100C8800F00DF10DFF3E031D432E0130FF007F08DC
:100C9800F407F11F502E512E422E71087302031DC6
:100CA800572E70087202031C5A2E5B2E612E700894
:100CB800F2027108031CF303F30201300310F10C74
:100CC800F00CFF3E031D622E0130F402031D6D2E51
:100CD8006E2E512E75080319722E732E782EF20976
:100CE800F309F20A0319F30A7308F1007208F00015
:100CF8000800FB30FF007F08831603138C050A12D7
:100D08008A1598230A128A11831203134703031DB5
:100D18008E2E8F2EC82E4503031D932E942EC82E7B
:100D2800CC0148080A128A11C6250A128A110A1229
:100D38008A15FF240A128A11063083120313CB0086
:100D48001330CA00AD30C900C90BA82ECA0BA82E93
:100D5800CB0BA82E831203134403031DB42EB52E08
:100D6800B72ECC01C4010130FF007F08CC07053045
:100D78004C02031CC02EC12E952EC50148080A122C
:100D88008A159D250A128A11831603130C1508006B
:100D98000030FC000030FB000030FA000030F900A1
:100DA800701CD72ED82EEF2E7408F907750803117A
:100DB8000318013E0319E12EFA07760803110318F8
:100DC800013E0319E82EFB07770803110318013EBB
:100DD8000319EF2EFC070130F8000310F40DF50D90
:100DE800F60DF70DF80BF12E01300310F30CF20C91
:100DF800F10CF00CFF3E031DF92E73087204710408
:100E08007004031D082F092FD42E7C08F3007B08DB
:100E1800F2007A08F1007908F0000800F401F50101
:100E2800700871040319192F1A2F512FF601F60AA9
:100E3800282F01300310F00DF10DFF3E031D1E2F6A
:100E48000130FF007F08F607F11F2B2F2C2F1D2FD5
:100E580001300310F40DF50DFF3E031D2D2F710811
:100E68007302031D392F70087202031C3C2F3D2F9B
:100E7800442F7008F2027108031CF303F302741480
:100E880001300310F10CF00CFF3E031D452F01301B
:100E9800F602031D502F512F2C2F7508F1007408EE
:100EA800F000080083120313DC000530FF007F0800
:100EB800D9005C080A128A1516250A128A11203EE2
:100EC800840083160313200883138000840A2108F2
:100ED80080000530FF007F0883120313D9005C08E7
:100EE8000A128A1516250A128A11223E84008316D0
:100EF8000313220883138000840A23088000053026
:100F0800FF007F0883120313D9005C080A128A15B0
:100F180016250A128A11243E840083160313240816
:100F2800FF007F088313800008000430FF007F085B
:100F380083120313D900DA01DA0A00300A128A117F
:100F480029210A128A110530FF007F088312031332
:100F5800D900DA01DA0A00300A128A1129210A12A4
:100F68008A1183120313D90103300A128A15C9277B
:100F78000A128A110430FF007F0883120313D90074
:100F8800DA0100300A128A11BF220A128A110530CA
:100F9800FF007F0883120313D900DA0100300A1218
:100FA8008A11BF220A128A11080083120313DA0079
:100FB8000A128A1500240A128A11A0300A128A1508
:100FC8008C240A128A1100300A128A158C240A12FB
:100FD8008A11831203135A080A128A158C240A12DA
:0E0FE8008A110A128A1509240A128A110800B9
:1010000008308A000408840A820700343F3406341A
:101010005B344F3466346D347D3407347F346F3441
:101020003F3406345B344F3466346D347D340734DA
:041030007F346F3466
:101730000430FF007F088312031386060800083078
:10174000FF007F0883120313860608000230FF00A3
:101750007F08831203138606080013300A128A15C5
:10176000B4230A128A15080083120313D9005908FA
:10177000FF007F08C100080083120313D900590835
:10178000FF007F08C000080083120313D900590826
:10179000FF007F08BF00080083120313D900590817
:1017A000FF007F08BE00080064008001840A040670
:1017B000031900340406D52B83120313C7010A1240
:1017C0008A15FF240A128A1508000A128A153E2477
:1017D0000A128A1583160313111408000A128A15B7
:1017E0003E240A128A15831603131115080083126A
:1017F0000313C7010A128A152D250A128A1508003B
:101800000A128A1572240A128A15831603131114F8
:1018100008000A128A1572240A128A158316031305
:10182000111508000A128A1572240A128A158316E5
:1018300003139114080083120313C701C70A430856
:101840000A128A11C6250A128A1508000230FF0002
:101850007F08F000F10102300A128A11F5210A1204
:101860008A1508000530FF007F08F000F101023002
:101870000A128A11F5210A128A1508008316031329
:101880001419432C442C3E2C11081F39031D492CDC
:101890004A2C3E2C0800F0000A128A153E240A1237
:1018A0008A157008FF007F08831203139300080055
:1018B0000230FF007F08F000F101F10A02300A1245
:1018C0008A11F5210A128A1508000530FF007F08E9
:1018D000F000F101F10A02300A128A11F5210A1210
:1018E0008A150800831603131419772C782C722C90
:1018F00011081F39031D7D2C7E2C722C08004130ED
:10190000FF007F08831203139F008030FF007F08D1
:10191000831603139F00080083120313D9000A12D1
:101920008A1572240A128A15831203135908FF00BC
:101930007F0893000800831203134703031DA12CA3
:10194000A22CA82C0A128A15DC230A128A15AD2CA7
:101950000A128A151B240A128A15080001300A127D
:101960008A15BC230A128A1504300A128A15C42368
:101970000A128A1507300A128A15CC230A128A1510
:1019800008000230FF007F0883120313D900DA0138
:1019900000300A128A1129210A128A150A128A15A0
:1019A0007F240A128A150800F200F101721CD92C5A
:1019B000DA2CDE2C7008FF007F08F1070310F00D11
:1019C0000310F20C7208031DE62CE72CD62C7108CC
:1019D0000800831203138E018F012130FF007F085E
:1019E00090000B30FF007F08970003309600E8302E
:1019F0009500831603130C150B178B170800043082
:101A0000FF007F08F000F10100300A128A11F52171
:101A10000A128A150530FF007F08F000F10100303E
:101A20000A128A11F5210A128A150800831203137B
:101A3000DB00DA015B1C1D2D1E2D222D5908FF0035
:101A40007F08DA070310D90D0310DB0C5B08031DB8
:101A50002A2D2B2D1A2D5A0808000430FF007F086C
:101A600083120313D900DA0100300A128A11BF224F
:101A70000A128A150530FF007F0883120313D9006C
:101A8000DA0100300A128A11BF220A128A150800F0
:101A90000230FF007F0883120313D900DA01DA0A4B
:101AA00002300A128A1129210A128A150230FF0017
:101AB0007F0883120313D900DA0102300A128A1157
:101AC000BF220A128A1508000530FF007F08831222
:101AD0000313D900DA01DA0A02300A128A11292125
:101AE0000A128A150530FF007F0883120313D900FC
:101AF000DA0102300A128A11BF220A128A1508007E
:101B00000A128A15A6230A128A15831203134703A1
:101B1000031D8B2D8C2D922D0A128A151B240A125F
:101B20008A159C2D4708031D962D972D9C2D0A1272
:101B30008A15DC230A128A150800F1000A128A1598
:101B4000E5230A128A15A0300A128A154B240A12BC
:101B50008A1500300A128A154B240A128A15710858
:101B60000A128A154B240A128A150A128A15EE23C4
:101B70000A128A150800831203134508031DC12D9C
:101B8000C22DC52DC501C50ADA2D4703031DC92D78
:101B9000CA2DDA2D24304802031CCF2DD02DDA2D8A
:101BA0000530C802C401C40A0A128A117D260A122D
:101BB0008A15DA2D0800831203134508031DE12D51
:101BC000E22DE52DC501C50AFC2D4703031DE92DB6
:101BD000EA2DFC2D4B3048020318EF2DF02DFC2D83
:101BE0000530FF007F08C807C401C40A0A128A1121
:101BF0007D260A128A15FC2D080083120313D901D1
:101C0000D90ADA01DA0A01300A128A1129210A12E4
:101C10008A150230FF007F0883120313D900DA010E
:101C2000DA0A01300A128A1129210A128A150330B0
:101C3000FF007F0883120313D900DA01DA0A0130AA
:101C40000A128A1129210A128A150800F5000530A6
:101C5000FF007F08F000F10100300A128A11F5211F
:101C60000A128A150430FF007F08F000F101F10A22
:101C700000300A128A11F5210A128A1575080B3EE6
:101C800084000A128A1500200A128A15FF007F08B4
:101C9000F00003300A128A1594270A128A150800E8
:101CA000F5000430FF007F08F000F10100300A1257
:101CB0008A11F5210A128A150530FF007F08F0000D
:101CC000F101F10A00300A128A11F5210A128A156F
:101CD0007508013E84000A128A1500200A128A152E
:101CE000FF007F08F00003300A128A1594270A12B9
:101CF0008A1508000430FF007F0883160313930041
:101D00002830FF007F088312031394008316031307
:101D100094010330FF007F0883120313D900DA0116
:101D200002300A128A1129210A128A150430FF0092
:101D30007F0883120313D900DA0102300A128A11D4
:101D400029210A128A150800F3007308F2000230F4
:101D50000310F20DFF3E031DA82E0310720DFF00AD
:101D60007F08831203139F041330F200F20BB62E88
:101D7000B92E831203131F151F08F200023003103F
:101D8000F20CFF3E031DBF2E7218C72EC82EBC2EAC
:101D90001E08F100831603131E08F00008000A1243
:101DA0008A1500240A128A15A0300A128A158C247A
:101DB0000A128A1500300A128A158C240A128A1512
:101DC0000A128A1512240A128A15A1300A128A15DB
:101DD0008C240A128A1500300A128A15FF260A126C
:101DE0008A15FF007F0883120313DB000A128A158D
:101DF00009240A128A15831203135B080800831250
:101E00000313D9000A128A1572240A128A1583163E
:101E1000031391150A128A1572240A128A15831265
:101E200003131308FF007F08DA000A128A157224D0
:101E30000A128A158312031359080319202F212F20
:101E4000252F8316031391162B2FDF30FF007F08F9
:101E50008316031391051116831203135A08080001
:101E600083120313D901DA0101300A128A112921E0
:101E70000A128A150430FF007F0883120313D90069
:101E8000DA0101300A128A1129210A128A15053055
:101E9000FF007F0883120313D900DA0101300A1210
:101EA0008A1129210A128A157F30FF007F088316C4
:101EB00003138105BF30FF007F0881050B168B15CA
:101EC0008B1708000A128A15CF260A128A15831268
:101ED0000313DC004B305C0203186F2F702F7F2F31
:101EE0000A128A15CF260A128A1583120313DC0000
:101EF00024305C02031C7D2F7E2F7F2F852F3C30EA
:101F00000A128A11D9270A128A150A128A15CF26AF
:101F10000A128A15FF007F0883120313C800C70145
:101F2000C601C501C4010800F300B22F7008FF000C
:101F30007F08831203138500C82F7008FF007F08F5
:101F4000831203138600C82F7008FF007F088312D6
:101F500003138700C82F7008FF007F088312031344
:101F60008800C82F7308F100F2017208003A0319C3
:101F7000BA2FC82F7108003A0319962F013A031996
:101F80009D2F033A0319A42F013A0319AB2FC82F31
:101F9000080083120313DC00E92F5908FF007F08B3
:101FA000831603138500FF2F5908FF007F0883164F
:101FB00003138600FF2F5908FF007F0883160313C1
:101FC0008700FF2F5908FF007F088316031388003E
:101FD000FF2F5C08DA00DB015B08003A0319F12FE0
:101FE000FF2F5A08003A0319CD2F013A0319D42FB5
:101FF000033A0319DB2F013A0319E22FFF2F0800E0
:02400E00713F00
:00000001FF
