:020000040000FA
:060000000A128A11122809
:10000800FE00030E83120313A7000408A8000A08C1
:10001800A9007F08AA000A128A116B2C0A128A11F9
:10002800152883133F3084005A300A128A153C2160
:100038000A128A1183010A128A152F2FFF00003035
:100048008A007F08820727280A128A113D28FF00A4
:1000580000308A007F08820730280A128A112B296B
:100068000A128A15392A0A128A154E2B0A128A157B
:100078002E2B83120313BE015803031D4428452861
:100088002A2902300A128A153B240A128A1183127D
:1000980003132C08CC002B08CB004B08AB004C08F2
:1000A800AC00AD01AE010030B2000030B100133039
:1000B800B0008830AF000A128A11A7270A128A11E5
:1000C800831203132B08B9002C08BA002D08BB00B3
:1000D8002E08BC000A300310BC0CBB0CBA0CB90CBF
:1000E800FF3E031D6F283A08CA003908C9000A30C4
:1000F800AB000030AC004A08AE004908AD000A1257
:100108008A15BA270A128A11831203132B08FF00D3
:100118007F08D40054080A128A1159250A128A1134
:10012800831203135408FF0053083F3E84007F08DE
:10013800831380000130FF007F08D3070A3053067D
:10014800031DA728A8282229D301BD013D083F3E49
:1001580084003E080007FF007F08BE000130FF0052
:100168007F08BD070A303D02031CBB28BC28AA280B
:100178000A30AB000030AC003E08B900BA013908BB
:10018800AD003A08AE000A128A11C5250A128A1172
:10019800831203132B08FF007F08BE003E08B90036
:1001A800BA013A08BC0059083902BB00031CBC0359
:1001B8003C08803AFF0080307F02031DE5280530A7
:1001C8003B02031CE828E928F4280A128A152A2287
:1001D8000A128A110A128A150D220A128A11222974
:1001E800831203135908B900BA013A08BC003E0843
:1001F8003902BB00031CBC033C08803AFF00803076
:100208007F02031D092905303B02031C0C290D2917
:1002180018290A128A11EF270A128A110A128A1556
:10022800FF210A128A1122290A128A15FF210A12AD
:100238008A110A128A150D220A128A1183120313CF
:1002480054080A128A1159250A128A1108008312C1
:100258000313A5015803031D32293329182A023034
:100268000A128A1510240A128A11710883120313BC
:10027800CC007008CB004B08F0004C08F100F201EC
:10028800F3010030F7000030F6001330F500883035
:10029800F4000A128A1574270A128A117008831248
:1002A8000313A0007108A1007208A2007308A3003C
:1002B8000A300310A30CA20CA10CA00CFF3E031DD6
:1002C8005D292108CA002008C9000A30F000003062
:1002D800F1004A08F3004908F2000A128A15EB26D1
:1002E8000A128A117008FF007F0883120313D400D2
:1002F80054080A128A1195260A128A1183120313C6
:100308005408FF0053083F3E84007F088313800091
:100318000130FF007F08D3070A305306031D9529D3
:100328009629102AD301A40124083F3E84002508F9
:100338000007FF007F08A5000130FF007F08A40721
:100348000A302402031CA929AA2998290A30F00096
:100358000030F1002508A000A1012008F2002108C2
:10036800F3000A128A112E260A128A117008FF0059
:100378007F0883120313A5002508A000A101210806
:10038800A30059082002A200031CA3032308803AF3
:10039800FF0080307F02031DD32905302202031C91
:1003A800D629D729E2290A128A15CB210A128A11DD
:1003B8000A128A15A5210A128A11102A8312031318
:1003C8005908A000A1012108A30025082002A200C5
:1003D800031CA3032308803AFF0080307F02031D1B
:1003E800F72905302202031CFA29FB29062A0A12DA
:1003F8008A15D8210A128A110A128A1599210A1215
:100408008A11102A0A128A1599210A128A110A12C7
:100418008A15A5210A128A118312031354080A1295
:100428008A1195260A128A11080083120313AF0055
:1004380004302F020318212A222AE42A08302B022A
:100448000318272A282AE42A2C03031D2C2A2D2ADC
:10045800882A722A0130AD002B0A342A0310AD0D08
:10046800FF3E031D322A2D08FF3AFF007F0883163E
:1004780003138505E42A0130AD002B0A452A031031
:10048800AD0DFF3E031D432A2D08FF3AFF007F08EC
:10049800831603138605E42A0130AD002B0A562A79
:1004A8000310AD0DFF3E031D542A2D08FF3AFF002F
:1004B8007F08831603138705E42A0130AD002B0A51
:1004C800672A0310AD0DFF3E031D652A2D08FF3A6C
:1004D800FF007F08831603138805E42A2F08AD0060
:1004E800AE012E08003A03197A2AE42A2D08003AA8
:1004F80003192E2A013A03193F2A033A0319502AED
:10050800013A0319612AE42A2C08031D8C2A8D2A32
:10051800E42ACE2A0130AD002B0A942A0310AD0D2F
:10052800FF3E031D922A2D08FF007F088316031340
:100538008504E42A0130AD002B0AA42A0310AD0D6E
:10054800FF3E031DA22A2D08FF007F088316031310
:100558008604E42A0130AD002B0AB42A0310AD0D3D
:10056800FF3E031DB22A2D08FF007F0883160313E0
:100578008704E42A0130AD002B0AC42A0310AD0D0C
:10058800FF3E031DC22A2D08FF007F0883160313B0
:100598008804E42A2F08AD00AE012E08003A03199A
:1005A800D62AE42A2D08003A03198E2A013A03199B
:1005B8009E2A033A0319AE2A013A0319BE2AE42AED
:1005C8000800F400043074020318EB2AEC2AAE2B5E
:1005D800083070020318F12AF22AAE2B7103031DAA
:1005E800F62AF72A4E2B382B0130F200700AFE2A21
:1005F8000310F20DFF3E031DFC2A7208FF007F085E
:10060800831203138504AE2B0130F200700A0E2BFF
:100618000310F20DFF3E031D0C2B7208FF007F082C
:10062800831203138604AE2B0130F200700A1E2BCE
:100638000310F20DFF3E031D1C2B7208FF007F08FC
:10064800831203138704AE2B0130F200700A2E2B9D
:100658000310F20DFF3E031D2C2B7208FF007F08CC
:10066800831203138804AE2B7408F200F301730895
:10067800003A0319402BAE2B7208003A0319F82AE6
:10068800013A0319082B033A0319182B013A0319E5
:10069800282BAE2B7108031D522B532BAE2B982BF6
:1006A8000130F200700A5A2B0310F20DFF3E031DB1
:1006B800582B7208FF3AFF007F0883120313850541
:1006C800AE2B0130F200700A6B2B0310F20DFF3EC7
:1006D800031D692B7208FF3AFF007F08831203137A
:1006E8008605AE2B0130F200700A7C2B0310F20D48
:1006F800FF3E031D7A2B7208FF3AFF007F08831222
:1007080003138705AE2B0130F200700A8D2B0310FE
:10071800F20DFF3E031D8B2B7208FF3AFF007F0886
:10072800831203138805AE2B7408F200F3017308D3
:10073800003A0319A02BAE2B7208003A0319542B68
:10074800013A0319652B033A0319762B013A031969
:10075800872BAE2B080083120313AF0004302F023F
:100768000318B72BB82B6A2C08302B020318BD2BA3
:10077800BE2B6A2C2C03031DC22BC32B122CFC2B63
:100788000130AD002B0ACA2B0310AD0DFF3E031D2F
:10079800C82B2D08FF007F0885046A2C0130AD00A6
:1007A8002B0AD82B0310AD0DFF3E031DD62B2D08A9
:1007B800FF007F0886046A2C0130AD002B0AE62B67
:1007C8000310AD0DFF3E031DE42B2D08FF007F082D
:1007D80087046A2C0130AD002B0AF42B0310AD0DF1
:1007E800FF3E031DF22B2D08FF007F0888046A2CAA
:1007F8002F08AD00AE012E08003A0319042C6A2C0C
:100808002D08003A0319C42B013A0319D22B033AD5
:100818000319E02B013A0319EE2B6A2C2C08031D4F
:10082800162C172C6A2C542C0130AD002B0A1E2CC8
:100838000310AD0DFF3E031D1C2C2D08FF3AFF00D1
:100848007F0885056A2C0130AD002B0A2D2C03107A
:10085800AD0DFF3E031D2B2C2D08FF3AFF007F082E
:1008680086056A2C0130AD002B0A3C2C0310AD0D17
:10087800FF3E031D3A2C2D08FF3AFF007F0887052D
:100888006A2C0130AD002B0A4B2C0310AD0DFF3E36
:10089800031D492C2D08FF3AFF007F0888056A2CA4
:1008A8002F08AD00AE012E08003A03195C2C6A2C03
:1008B8002D08003A0319182C013A0319272C033A7A
:1008C8000319362C013A0319452C6A2C08000B0829
:1008D800A60001300310A60CFF3E031D6E2C261C3B
:1008E800762C772C822C50080A128A112B200A1297
:1008F8008A11FD30FF007F088B05DE2C0B1C852C30
:10090800862CBA2C0430FF007F08F00001300A1250
:100918008A11EB240A128A11003A031D942C952C93
:100928009E2C831203134F080A128A112B200A12D5
:100938008A11B52C0530FF007F08F00001300A123B
:100948008A11EB240A128A11003A031DAC2CAD2C33
:10095800B52C831203134E080A128A112B200A128F
:100968008A11FE30FF007F088B05DE2C0C08A600DC
:1009780002300310A60CFF3E031DBD2C261CC52CFF
:10098800C62CDE2C0130FF007F08D20764305206E7
:10099800031DCF2CD02CD92C51080A128A112B20D8
:1009A8000A128A1183120313D201FB30FF007F0859
:1009B8008C05DE2C831203132A08FF0029088A00FD
:1009C80028088400270E8300FE0E7E0E0900F3001F
:1009D800043073020318F12CF22C532D08307002E6
:1009E8000318F72CF82C532D3D2D831203130508FB
:1009F800F100700A012D0310F10CFF3E031DFF2CBE
:100A080071080139FF007F08F400572D8312031382
:100A18000608F100700A122D0310F10CFF3E031DA9
:100A2800102D71080139FF007F08F400572D83123B
:100A380003130708F100700A232D0310F10CFF3E81
:100A4800031D212D71080139FF007F08F400572D7F
:100A5800831203130808F100700A342D0310F10CF7
:100A6800FF3E031D322D71080139FF007F08F40095
:100A7800572D7308F100F2017208003A0319452D49
:100A8800572D7108003A0319F92C013A03190A2D58
:100A9800033A03191B2D013A03192C2D572DFF304A
:100AA800FF007F08F4007408080083120313B700DE
:100AB8000A30AB000030AC003708B300B40133088B
:100AC800AD003408AE000A128A11F3260A128A1100
:100AD800831203132B08FF007F08B5000A30AB0010
:100AE8000030AC003708B300B4013308AD00340857
:100AF800AE000A128A11C5250A128A11831203133D
:100B08002B08FF007F08B600B80135080A128A15BD
:100B1800C8240A128A111A3083120313B400F7305A
:100B2800B300B30B952DB40B952D9A2D8312031397
:100B380036080A128A1598240A128A111A30831262
:100B48000313B400F730B300B30BA82DB40BA82DD2
:100B5800AD2D0130FF007F0883120313B807323030
:100B68003802031CB82DB92D892D0430FF007F08E9
:100B7800AB00AC0100300A128A11AF230A128A11A5
:100B8800080083120313B001AC1FCB2DCC2DD32D3D
:100B9800AB09AC09AB0A0319AC0AB001B00AAE1F25
:100BA800D62DD72DE02DAD09AE09AD0A0319AE0A31
:100BB8000130FF007F08B006B101B2012B082C04F8
:100BC8000319E72DE82D1F2EAF01AF0AF62D0130CE
:100BD8000310AB0DAC0DFF3E031DEC2D0130FF00E3
:100BE8007F08AF07AC1FF92DFA2DEB2D013003104C
:100BF800B10DB20DFF3E031DFB2D2C082E02031D67
:100C0800072E2B082D02031C0A2E0B2E122E2B0842
:100C1800AD022C08031CAE03AE02311401300310E0
:100C2800AC0CAB0CFF3E031D132E0130AF02031DAD
:100C38001E2E1F2EFA2D30080319232E242E292E9E
:100C4800B109B209B10A0319B20A3208AC00310875
:100C5800AB000800F501F11F322E332E3A2EF009B1
:100C6800F109F00A0319F10AF501F50AF31F3D2EFF
:100C78003E2E472EF209F309F20A0319F30A01304E
:100C8800FF007F08F506F601F701700871040319E3
:100C98004E2E4F2E862EF401F40A5D2E01300310DD
:100CA800F00DF10DFF3E031D532E0130FF007F08AC
:100CB800F407F11F602E612E522E01300310F60D3D
:100CC800F70DFF3E031D622E71087302031D6E2E81
:100CD80070087202031C712E722E792E7008F202AF
:100CE8007108031CF303F302761401300310F10CAE
:100CF800F00CFF3E031D7A2E0130F402031D852EF1
:100D0800862E612E750803198A2E8B2E902EF609D1
:100D1800F709F60A0319F70A7708F1007608F000D0
:100D28000800FC000A30F0000030F1007C08F800F0
:100D3800F9017808F2007908F3000A128A114E279F
:100D48000A128A117008FF007F08FA000A30F000C2
:100D58000030F1007C08F800F9017808F200790801
:100D6800F3000A128A112E260A128A117008FF004F
:100D78007F08FB00FD017A080A128A15BC230A12B3
:100D88008A111A30F900F830F800F80BC92EF90B5F
:100D9800C92E00007B080A128A1592230A128A11AA
:100DA8001A30F900F830F800F80BD82EF90BD82EC5
:100DB80000000130FF007F08FD0732307D02031C70
:100DC800E62EE72EBF2E0430FF007F08F000F10169
:100DD80000300A128A11E5220A128A1108008312C9
:100DE8000313B001AE1FF92EFA2E012FAD09AE097B
:100DF800AD0A0319AE0AB001B00AAC1F042F052FC3
:100E08000A2FAB09AC09AB0A0319AC0A2B082C044E
:100E180003190F2F102F3F2FAF01AF0A1E2F0130DC
:100E28000310AB0DAC0DFF3E031D142F0130FF0066
:100E38007F08AF07AC1F212F222F132F2C082E025B
:100E4800031D282F2B082D02031C2B2F2C2F322F8C
:100E58002B08AD022C08031CAE03AE0201300310B0
:100E6800AC0CAB0CFF3E031D332F0130AF02031D4A
:100E78003E2F3F2F222F30080319432F442F492F8D
:100E8800AD09AE09AD0A0319AE0A2E08AC002D084B
:100E9800AB000800F501F31F522F532F5A2FF20908
:100EA800F309F20A0319F30AF501F50AF11F5D2F98
:100EB8005E2F632FF009F109F00A0319F10A70088F
:100EC80071040319682F692F982FF401F40A772FFA
:100ED80001300310F00DF10DFF3E031D6D2F0130A1
:100EE800FF007F08F407F11F7A2F7B2F6C2F710802
:100EF8007302031D812F70087202031C842F852F33
:100F08008B2F7008F2027108031CF303F3020130FF
:100F18000310F10CF00CFF3E031D8C2F0130F4027E
:100F2800031D972F982F7B2F750803199C2F9D2F32
:100F3800A22FF209F309F20A0319F30A7308F10060
:100F48007208F0000800003083120313B700003065
:100F5800B6000030B5000030B4002B1CB42FB52FFC
:100F6800CC2F2F08B407300803110318013E0319CA
:100F7800BE2FB507310803110318013E0319C52F09
:100F8800B607320803110318013E0319CC2FB7071F
:100F98000130B3000310AF0DB00DB10DB20DB30B9E
:100FA800CE2F01300310AE0CAD0CAC0CAB0CFF3ED9
:100FB800031DD62F2E082D042C042B04031DE52F0A
:100FC800E62FB12F3708AE003608AD003508AC0063
:100FD8003408AB0008000530FF007F0883120313B4
:100FE800AB00AC01AC0A02300A128A11AF230A1214
:040FF8008A11080052
:1010000008308A000408840A820700343F3406341A
:101010005B344F3466346D347D3407347F346F3441
:101020003F3406345B344F3466346D347D340734DA
:041030007F346F3466
:1012380083120313AB002B08FF007F08D0000800BF
:1012480083120313AB002B08FF007F08CF000800B0
:1012580083120313AB002B08FF007F08CE000800A1
:1012680083120313AB002B08FF007F08D10008008E
:1012780064008001840A04060319003404063D2929
:1012880083120313D8010A128A1575220A128A15C5
:1012980008000A128A15B1210A128A158316031347
:1012A800111408000A128A15B1210A128A15831628
:1012B8000313111508000A128A15E5210A128A1566
:1012C80083160313111408000A128A15E5210A125D
:1012D8008A1583160313111508000A128A15E521C9
:1012E8000A128A1583160313911408008312031334
:1012F800D8010A128A15BD220A128A15080083121B
:101308000313D801D80A54080A128A1195260A121A
:101318008A15080083120313D801D80A54080A1240
:101328008A1159250A128A1508000230FF007F0821
:10133800F000F10102300A128A11E5220A128A1518
:1013480008000530FF007F08F000F10102300A12A2
:101358008A11E5220A128A15080083160313141944
:10136800B629B729B12911081F39031DBC29BD2980
:10137800B1290800F0000A128A15B1210A128A154B
:101388007008FF007F0883120313930008000230DF
:10139800FF007F08F000F101F10A02300A128A11F9
:1013A800E5220A128A1508000530FF007F08F000C0
:1013B800F101F10A02300A128A11E5220A128A158D
:1013C8000800831603131419EA29EB29E5291108E3
:1013D8001F39031DF029F129E52908004130FF00D4
:1013E8007F08831203139F008030FF007F08831655
:1013F80003139F0008000230FF007F0883120313C5
:10140800AB00AC0102300A128A11AF230A128A1506
:1014180008000530FF007F0883120313AB00AC01FE
:1014280002300A128A11AF230A128A1508008312A1
:101438000313AB000A128A15E5210A128A158312D2
:1014480003132B08FF007F08930008000230FF00F9
:101458007F0883120313AB00AC01AC0A02300A12F6
:101468008A11AF230A128A1508008312031358033E
:10147800031D3F2A402A462A0A128A1544210A12C5
:101488008A154B2A0A128A1583210A128A1508001E
:101498000230FF007F0883120313AB00AC01003059
:1014A8000A128A1119220A128A150A128A15F221B9
:1014B8000A128A150800831203138E018F01213046
:1014C800FF007F0890000B30FF007F089700033073
:1014D8009600E8309500831603130C150B178B172D
:1014E80008000430FF007F08F000F10100300A1204
:1014F8008A11E5220A128A150530FF007F08F000DC
:10150800F10100300A128A11E5220A128A15080030
:10151800831203135803031D922A932A992A0A1245
:101528008A158E210A128A15A32A5808031D9D2A96
:101538009E2AA32A0A128A157A210A128A150800F5
:1015480001300A128A1534210A128A1504300A1247
:101558008A151C210A128A1507300A128A152421B5
:101568000A128A150A300A128A152C210A128A15BB
:1015780008000430FF007F0883120313AB00AC019E
:1015880000300A128A11AF230A128A150530FF00AB
:101598007F0883120313AB00AC0100300A128A11D2
:1015A800AF230A128A1508000230FF007F08831251
:1015B8000313AB00AC01AC0A02300A128A111922DB
:1015C8000A128A150230FF007F0883120313AB004A
:1015D800AC0102300A128A11AF230A128A150800D8
:1015E8000530FF007F0883120313AB00AC01AC0A7F
:1015F80002300A128A1119220A128A150530FF00D0
:101608007F0883120313AB00AC0102300A128A115F
:10161800AF230A128A150800F1000A128A154D2113
:101628000A128A15A0300A128A15BE210A128A15D2
:1016380000300A128A15BE210A128A1571080A1288
:101648008A15BE210A128A150A128A1556210A120B
:101658008A150800831203135608031D342B352BF3
:10166800382BD601D60A482B5803031D3C2B3D2B9B
:10167800482B24305902031C422B432B482B05309E
:10168800D902D501D50A482B0A128A1569260A12E9
:101698008A150800831203135608031D542B552B73
:1016A800582BD601D60A6A2B5803031D5C2B5D2BD9
:1016B8006A2B4B3059020318622B632B6A2B0530B7
:1016C800FF007F08D907D501D50A6A2B0A128A15A7
:1016D80069260A128A15080083120313AC000A123D
:1016E8008A155F210A128A15A0300A128A151B2250
:1016F8000A128A1500300A128A151B220A128A1544
:10170800831203132C080A128A151B220A128A153F
:101718000A128A1568210A128A150800F500053090
:10172800FF007F08F000F10100300A128A11E5225B
:101738000A128A150430FF007F08F000F101F10A4F
:1017480000300A128A11E5220A128A1575080B3E22
:1017580084000A128A1500200A128A15FF007F08E1
:10176800F00003300A128A15BD250A128A150800EE
:10177800F5000430FF007F08F000F10100300A1284
:101788008A11E5220A128A150530FF007F08F00049
:10179800F101F10A00300A128A11E5220A128A15AB
:1017A8007508013E84000A128A1500200A128A155B
:1017B800FF007F08F00003300A128A15BD250A12BF
:1017C8008A1508000430FF007F088316031393006E
:1017D8002830FF007F088312031394008316031335
:1017E80094010330FF007F0883120313AB00AC01A0
:1017F80002300A128A1119220A128A150430FF00CF
:101808007F0883120313AB00AC0102300A128A115D
:1018180019220A128A150800F3007308F200023030
:101828000310F20DFF3E031D142C0310720DFF0070
:101838007F08831203139F041330F200F20B222C4B
:10184800252C831203131F151F08F2000230031002
:10185800F20CFF3E031D2B2C7218332C342C282C31
:101868001E08F100831603131E08F00008008312F7
:101878000313AE002E08AD0002300310AD0DFF3E7D
:10188800031D412C03102D0DFF007F089F0413300A
:1018980083120313AD00AD0B4F2C831203131F15D6
:1018A8001F08AD0002300310AD0CFF3E031D572C7E
:1018B8002D185F2C602C542C1E08AC0083160313C3
:1018C8001E0883120313AB00080083120313AE0033
:1018D800812C2B08FF007F088500972C2B08FF0020
:1018E8007F088600972C2B08FF007F088700972C1D
:1018F8002B08FF007F088800972C2E08AC00AD014C
:101908002D08003A0319892C972C2C08003A031942
:101918006D2C013A0319722C033A0319772C013AFA
:1019280003197C2C972C080083120313B000053090
:10193800FF007F08AB00AC0100300A128A11AF2308
:101948000A128A150430FF007F0883120313AB00C4
:10195800AC01AC0A00300A128A11AF230A128A15A8
:101968008312031330080B3E84000A128A150020E4
:101978000A128A15FF007F08AB0003300A128A1585
:1019880069240A128A15080083120313B000043070
:10199800FF007F08AB00AC0100300A128A11AF23A8
:1019A8000A128A150530FF007F0883120313AB0063
:1019B800AC01AC0A00300A128A11AF230A128A1548
:1019C800831203133008013E84000A128A1500208E
:1019D8000A128A15FF007F08AB0003300A128A1525
:1019E80069240A128A1508000A128A155F210A1248
:1019F8008A15A0300A128A151B220A128A1500308D
:101A08000A128A151B220A128A150A128A157121CE
:101A18000A128A15A1300A128A151B220A128A157F
:101A280000300A128A1528250A128A15FF007F0835
:101A380083120313AD000A128A1568210A128A1547
:101A4800831203132D08080083120313AB000A1234
:101A58008A15E5210A128A158316031391150A12AD
:101A68008A15E5210A128A15831203131308FF0049
:101A78007F08AC000A128A15E5210A128A1583121A
:101A880003132B080319492D4A2D4E2D83160313D2
:101A98009116542DDF30FF007F088316031391053C
:101AA8001116831203132C08080083120313AB01C9
:101AB800AC0101300A128A1119220A128A1504305F
:101AC800FF007F0883120313AB00AC0101300A1238
:101AD8008A1119220A128A150530FF007F0883121D
:101AE8000313AB00AC0101300A128A1119220A1241
:101AF8008A157F30FF007F08831603138105BF30E6
:101B0800FF007F0881050B168B158B1708000A123A
:101B18008A15F8240A128A1583120313AE004B3073
:101B28002E020318982D992DA82D0A128A15F8242B
:101B38000A128A1583120313AE0024302E02031CE6
:101B4800A62DA72DA82DAE2D3C300A128A1570237C
:101B58000A128A150A128A15F8240A128A15FF0031
:101B68007F0883120313D900D801D701D601D50104
:101B78000800F300DB2D7008FF007F0883120313B1
:101B88008500F12D7008FF007F088312031386007B
:101B9800F12D7008FF007F08831203138700F12DD1
:101BA8007008FF007F08831203138800F12D730863
:101BB800F100F2017208003A0319E32DF12D7108C2
:101BC800003A0319BF2D013A0319C62D033A031928
:101BD800CD2D013A0319D42DF12D080083120313DA
:101BE800AE00122E2B08FF007F0883160313850012
:101BF800282E2B08FF007F08831603138600282E43
:101C08002B08FF007F08831603138700282E2B0854
:101C1800FF007F08831603138800282E2E08AC00C7
:101C2800AD012D08003A03191A2E282E2C08003A67
:101C38000319F62D013A0319FD2D033A0319042E51
:101C4800013A03190B2E282E08000430FF007F08E4
:101C580083120313AB00AC01AC0A00300A128A11DC
:101C680019220A128A150530FF007F088312031310
:101C7800AB00AC01AC0A00300A128A1119220A1210
:101C88008A1583120313AB0103300A128A15F22551
:101C98000A128A150430FF007F0883120313AB0071
:101CA800AC0100300A128A11AF230A128A150530D6
:101CB800FF007F0883120313AB00AC0100300A1247
:101CC8008A11AF230A128A150800831203135803D6
:101CD800031D6F2E702EA92E5603031D742E752E0C
:101CE800A92EA30159080A128A1195260A128A15E3
:101CF8000A128A1575220A128A150B3083120313E9
:101D0800A2002630A1005D30A000A00B892EA10BF7
:101D1800892EA20B892E831203135503031D952EBA
:101D2800962E982EA301D5010130FF007F08A30746
:101D380005302302031CA12EA22E762ED6015908A7
:101D48000A128A1510230A128A150800831203132F
:101D58005803031DB02EB12EEA2E5603031DB52ECF
:101D6800B62EEA2EBC0159080A128A1159250A1200
:101D78008A150A128A15BD220A128A150B30831297
:101D88000313BB002630BA005D30B900B90BCA2E68
:101D9800BA0BCA2EBB0BCA2E831203135503031D9D
:101DA800D62ED72ED92EBC01D5010130FF007F08D1
:101DB800BC0705303C02031CE22EE32EB72ED601E9
:101DC80059080A128A1570230A128A150800F401A4
:101DD800F501700871040319F22EF32E2A2FF6016B
:101DE800F60A012F01300310F00DF10DFF3E031D1F
:101DF800F72E0130FF007F08F607F11F042F052F8B
:101E0800F62E01300310F40DF50DFF3E031D062FCD
:101E180071087302031D122F70087202031C152F1C
:101E2800162F1D2F7008F2027108031CF303F3022A
:101E3800741401300310F10CF00CFF3E031D1E2F2B
:101E48000130F602031D292F2A2F052F7508F100EE
:101E58007408F00008000A128A15F4220A128A157A
:101E68000A128A15D8220A128A150A128A154C22D1
:101E78000A128A150A128A15E6230A128A150A1204
:101E88008A1559250A128A150A128A1529260A124C
:101E98008A150A128A15A4220A128A150A128A15A4
:101EA8007A210A128A150A128A158B250A128A15AE
:101EB8000A128A155F220A128A150A128A158C22BA
:101EC8000A128A150A128A15AA260A128A150A12ED
:101ED8008A113D200A128A15612F0A128A111228C6
:101EE8000030FC000030FB000030FA000030F90040
:101EF800701C7F2F802F972F7408F907750803111E
:101F08000318013E0319892FFA07760803110318ED
:101F1800013E0319902FFB07770803110318013EB0
:101F28000319972FFC070130F8000310F40DF50D85
:101F3800F60DF70DF80B992F01300310F30CF20C86
:101F4800F10CF00CFF3E031DA12F730872047104FD
:101F58007004031DB02FB12F7C2F7C08F3007B0881
:101F6800F2007A08F1007908F000080083120313E0
:101F7800AF01B0012B082C040319C32FC42FFB2F6A
:101F8800B101B10AD22F01300310AB0DAC0DFF3EE9
:101F9800031DC82F0130FF007F08B107AC1FD52FE4
:101FA800D62FC72F01300310AF0DB00DFF3E031D14
:101FB800D72F2C082E02031DE32F2B082D02031CFC
:101FC800E62FE72FEE2F2B08AD022C08031CAE03DB
:101FD800AE022F1401300310AC0CAB0CFF3E031DF6
:101FE800EF2F0130B102031DFA2FFB2FD62F300837
:081FF800AC002F08AB0008004B
:02400E00713F00
:00000001FF
