:020000040000FA
:060000000A128A11122809
:10000800FE00030E83120313A1000408A2000A08CD
:10001800A3007F08A4000A128A11002D0A128A116F
:10002800152883120313B701B801B901BA01BB013E
:10003800BC01BD01BE0183010A128A11382E232892
:10004800FF0000308A007F08820729280A128A15D3
:10005800702F0A128A15E32F0A128A15AD2F831200
:100068000313A9000430290203183B283C28FE2862
:1000780008302502031841284228FE282603031DBC
:1000880046284728A2288C280130A700250A4E2890
:100098000310A70DFF3E031D4C282708FF3AFF0059
:1000A8007F08831603138505FE280130A700250A5B
:1000B8005F280310A70DFF3E031D5D282708FF3AA0
:1000C800FF007F08831603138605FE280130A7006A
:1000D800250A70280310A70DFF3E031D6E28270868
:1000E800FF3AFF007F08831603138705FE280130B7
:1000F800A700250A81280310A70DFF3E031D7F28AE
:100108002708FF3AFF007F08831603138805FE2897
:100118002908A700A8012808003A03199428FE28EE
:100128002708003A03194828013A03195928033ABD
:1001380003196A28013A03197B28FE282608031D9B
:10014800A628A728FE28E8280130A700250AAE28F7
:100158000310A70DFF3E031DAC282708FF007F08EA
:10016800831603138504FE280130A700250ABE283C
:100178000310A70DFF3E031DBC282708FF007F08BA
:10018800831603138604FE280130A700250ACE280B
:100198000310A70DFF3E031DCC282708FF007F088A
:1001A800831603138704FE280130A700250ADE28DA
:1001B8000310A70DFF3E031DDC282708FF007F085A
:1001C800831603138804FE282908A700A801280815
:1001D800003A0319F028FE282708003A0319A8282E
:1001E800013A0319B828033A0319C828013A031930
:1001F800D828FE280800F4000430740203180529E2
:100208000629C8290830700203180B290C29C829A7
:100218007103031D10291129682952290130F200A0
:10022800700A18290310F20DFF3E031D16297208E3
:10023800FF007F08831203138504C8290130F200E8
:10024800700A28290310F20DFF3E031D26297208A3
:10025800FF007F08831203138604C8290130F200C7
:10026800700A38290310F20DFF3E031D3629720863
:10027800FF007F08831203138704C8290130F200A6
:10028800700A48290310F20DFF3E031D4629720823
:10029800FF007F08831203138804C8297408F2003A
:1002A800F3017308003A03195A29C8297208003A59
:1002B80003191229013A03192229033A0319322989
:1002C800013A03194229C8297108031D6C296D29AF
:1002D800C829B2290130F200700A74290310F20DFE
:1002E800FF3E031D72297208FF3AFF007F08831240
:1002F80003138505C8290130F200700A8529031007
:10030800F20DFF3E031D83297208FF3AFF007F08A4
:10031800831203138605C8290130F200700A962952
:100328000310F20DFF3E031D94297208FF3AFF00E7
:100338007F08831203138705C8290130F200700A69
:10034800A7290310F20DFF3E031DA5297208FF3AE5
:10035800FF007F08831203138805C8297408F20078
:10036800F3017308003A0319BA29C8297208003A38
:1003780003196E29013A03197F29033A03199029B1
:10038800013A0319A129C829080083120313A900F7
:10039800043029020318D129D229842A08302502D9
:1003A8000318D729D829842A2603031DDC29DD2927
:1003B8002C2A162A0130A700250AE4290310A70DC4
:1003C800FF3E031DE2292708FF007F088504842AD1
:1003D8000130A700250AF2290310A70DFF3E031DCF
:1003E800F0292708FF007F088604842A0130A70027
:1003F800250A002A0310A70DFF3E031DFE29270822
:10040800FF007F088704842A0130A700250A0E2AE6
:100418000310A70DFF3E031D0C2A2708FF007F08C5
:100428008804842A2908A700A8012808003A031983
:100438001E2A842A2708003A0319DE29013A0319DB
:10044800EC29033A0319FA29013A0319082A842ADC
:100458002608031D302A312A842A6E2A0130A70073
:10046800250A382A0310A70DFF3E031D362A270840
:10047800FF3AFF007F088505842A0130A700250A76
:10048800472A0310A70DFF3E031D452A2708FF3AF8
:10049800FF007F088605842A0130A700250A562A0E
:1004A8000310A70DFF3E031D542A2708FF3AFF003B
:1004B8007F088705842A0130A700250A652A0310CA
:1004C800A70DFF3E031D632A2708FF3AFF007F0898
:1004D8008805842A2908A700A8012808003A0319D2
:1004E800762A842A2708003A0319322A013A03197E
:1004F800412A033A0319502A013A03195F2A842A28
:10050800080083120313B1000A30A5000030A600CA
:100518003108AD00AE012D08A7002E08A8000A1268
:100528008A11A5240A128A11831203132508FF00D1
:100538007F08AF000A30A5000030A6003108AD00E2
:10054800AE012D08A7002E08A8000A128A116C23F4
:100558000A128A11831203132508FF007F08B000CE
:10056800B2012F080A128A110F270A128A111A30AB
:1005780083120313AE00F730AD00AD0BC12AAE0BEA
:10058800C12AC62A8312031330080A128A113F2788
:100598000A128A111A3083120313AE00F730AD0025
:1005A800AD0BD42AAE0BD42AD92A0130FF007F081C
:1005B80083120313B20732303202031CE42AE52AFD
:1005C800B52A0230FF007F08A500A60100300A12F4
:1005D8008A11C9210A128A110330FF007F08831289
:1005E8000313A500A60100300A128A11C9210A12B4
:1005F8008A110800F300043073020318042B052B3A
:10060800662B0830700203180A2B0B2B662B502B15
:10061800831203130508F100700A142B0310F10C60
:10062800FF3E031D122B71080139FF007F08F400FB
:100638006A2B831203130608F100700A252B031096
:10064800F10CFF3E031D232B71080139FF007F08C1
:10065800F4006A2B831203130708F100700A362B83
:100668000310F10CFF3E031D342B71080139FF0004
:100678007F08F4006A2B831203130808F100700A3C
:10068800472B0310F10CFF3E031D452B7108013960
:10069800FF007F08F4006A2B7308F100F20172086A
:1006A800003A0319582B6A2B7108003A03190C2BCE
:1006B800013A03191D2B033A03192E2B013A03198A
:1006C8003F2B6A2BFF30FF007F08F40074080800F6
:1006D80083120313AA01A61F722B732B7A2BA50969
:1006E800A609A50A0319A60AAA01AA0AA81F7D2B0A
:1006F8007E2B872BA709A809A70A0319A80A013086
:10070800FF007F08AA06AB01AC01250826040319DF
:100718008E2B8F2BC62BA901A90A9D2B0130031004
:10072800A50DA60DFF3E031D932B0130FF007F088A
:10073800A907A61FA02BA12B922B01300310AB0DEC
:10074800AC0DFF3E031DA22B26082802031DAE2B6D
:1007580025082702031CB12BB22BB92B2508A702A9
:100768002608031CA803A8022B1401300310A60CAA
:10077800A50CFF3E031DBA2B0130A902031DC52B92
:10078800C62BA12B2A080319CA2BCB2BD02BAB09BC
:10079800AC09AB0A0319AC0A2C08A6002B08A50063
:1007A8000800FC000A30F0000030F1007C08F80076
:1007B800F9017808F2007908F3000A128A115B251A
:1007C8000A128A117008FF007F08FA000A30F00048
:1007D8000030F1007C08F800F9017808F200790887
:1007E800F3000A128A113E240A128A117008FF00C7
:1007F8007F08FB00FD017A080A128A119E270A1257
:100808008A111A30F900F830F800F80B092CF90BA6
:10081800092C00007B080A128A11C8270A128A11BB
:100828001A30F900F830F800F80B182CF90B182CCE
:1008380000000130FF007F08FD0732307D02031CF5
:10084800262C272CFF2B0230FF007F08F000F10137
:1008580000300A128A11FF200A128A110330FF00A1
:100868007F08F000F10100300A128A11FF200A12F5
:100878008A110800F501F11F422C432C4A2CF0097B
:10088800F109F00A0319F10AF501F50AF31F4D2CD5
:100898004E2C572CF209F309F20A0319F30A013016
:1008A800FF007F08F506F601F701700871040319C7
:1008B8005E2C5F2C962CF401F40A6D2C0130031089
:1008C800F00DF10DFF3E031D632C0130FF007F0882
:1008D800F407F11F702C712C622C01300310F60DF7
:1008E800F70DFF3E031D722C71087302031D7E2C49
:1008F80070087202031C812C822C892C7008F20269
:100908007108031CF303F302761401300310F10C91
:10091800F00CFF3E031D8A2C0130F402031D952CB8
:10092800962C712C750803199A2C9B2CA02CF6096F
:10093800F709F60A0319F70A7708F1007608F000B4
:10094800080083120313AA01A81FAB2CAC2CB32CEC
:10095800A709A809A70A0319A80AAA01AA0AA61F8B
:10096800B62CB72CBC2CA509A609A50A0319A60AFA
:10097800250826040319C12CC22CF12CA901A90AA7
:10098800D02C01300310A50DA60DFF3E031DC62C6B
:100998000130FF007F08A907A61FD32CD42CC52C33
:1009A80026082802031DDA2C25082702031CDD2C43
:1009B800DE2CE42C2508A7022608031CA803A8029D
:1009C80001300310A60CA50CFF3E031DE52C0130D9
:1009D800A902031DF02CF12CD42C2A080319F52C9C
:1009E800F62CFB2CA709A809A70A0319A80A2808A6
:1009F800A6002708A50008000B08A0000130031076
:100A0800A00CFF3E031D032D201C0B2D0C2D172DB4
:100A180039080A128A1124200A128A11FD30FF00AF
:100A28007F088B054E2D0B1C1A2D1B2D4E2D0430C7
:100A3800FF007F08F00001300A128A11FE220A1214
:100A48008A11003A031D292D2A2D332D83120313F1
:100A580038080A128A1124200A128A114A2D0530F0
:100A6800FF007F08F00001300A128A11FE220A12E4
:100A78008A11003A031D412D422D4A2D831203137A
:100A880037080A128A1124200A128A11FE30FF0040
:100A98007F088B05831203132408FF0023088A00AC
:100AA80022088400210E8300FE0E7E0E0900F50147
:100AB800F31F5F2D602D672DF209F309F20A031960
:100AC800F30AF501F50AF11F6A2D6B2D702DF00957
:100AD800F109F00A0319F10A700871040319752D58
:100AE800762DA52DF401F40A842D01300310F00DA4
:100AF800F10DFF3E031D7A2D0130FF007F08F4073A
:100B0800F11F872D882D792D71087302031D8E2DF5
:100B180070087202031C912D922D982D7008F20214
:100B28007108031CF303F30201300310F10CF00CFD
:100B3800FF3E031D992D0130F402031DA42DA52DA0
:100B4800882D75080319A92DAA2DAF2DF209F309CF
:100B5800F20A0319F30A7308F1007208F00008009A
:100B68000230FF007F0883120313A500A601A60A1E
:100B780000300A128A1133200A128A110330FF004A
:100B88007F0883120313A500A601A60A00300A12E3
:100B98008A1133200A128A1183120313A501033024
:100BA8000A128A1171260A128A110230FF007F0880
:100BB80083120313A500A60100300A128A11C92165
:100BC8000A128A110330FF007F0883120313A5005D
:100BD800A60100300A128A11C9210A128A11831249
:100BE8000313A50100300A128A116F270A128A110D
:100BF8000800831203133E03031D032E042E372E11
:100C08003B03031D082E092E372EB6013F080A1292
:100C18008A1185220A128A110A128A15C8270A120D
:100C28008A110B3083120313B5002630B4005D30EF
:100C3800B300B30B1D2EB40B1D2EB50B1D2E831246
:100C480003133A03031D292E2A2E2C2EB601BA01AE
:100C58000130FF007F08B60705303602031C352E29
:100C6800362E0A2EBB0108000A128A11F2270A1230
:100C78008A110A128A11DD260A128A110A128A11A9
:100C8800B4250A128A110A128A1583270A128A11B0
:100C98000A128A1551270A128A11831203133E0376
:100CA800031D572E582E5E2E0A128A1565270A1222
:100CB8008A11682E3E08031D622E632E682E0A12C2
:100CC8008A1551270A128A110A128A11FD250A1259
:100CD8008A11512E0A128A11122883120313A800AE
:100CE800912E2508FF007F08831603138500A72E81
:100CF8002508FF007F08831603138600A72E250802
:100D0800FF007F08831603138700A72E2508FF001E
:100D18007F08831603138800A72E2808A600A701BA
:100D28002708003A0319992EA72E2608003A031916
:100D3800752E013A03197C2E033A0319832E013AC2
:100D480003198A2EA72E0800F300C62E7008FF008C
:100D58007F08831203138500DC2E7008FF007F08CC
:100D6800831203138600DC2E7008FF007F088312AD
:100D780003138700DC2E7008FF007F08831203131B
:100D88008800DC2E7308F100F2017208003A03199A
:100D9800CE2EDC2E7108003A0319AA2E013A031947
:100DA800B12E033A0319B82E013A0319BF2EDC2ECF
:100DB800080083120313A501A60101300A128A1143
:100DC80033200A128A110430FF007F0883120313AC
:100DD800A500A60101300A128A1133200A128A11CD
:100DE8000530FF007F0883120313A500A601013018
:100DF8000A128A1133200A128A117F30FF007F08F5
:100E0800831603138105BF30FF007F0881050B1689
:100E18008B158B17080083120313AA000230FF00FA
:100E28007F08A500A60100300A128A11C9210A12FA
:100E38008A110330FF007F0883120313A500A6015F
:100E4800A60A00300A128A11C9210A128A118312CD
:100E580003132A08013E84000A128A1500200A1288
:100E68008A11FF007F08A50003300A128A116F2734
:100E78000A128A11080083120313AA000330FF0024
:100E88007F08A500A60100300A128A11C9210A129A
:100E98008A110230FF007F0883120313A500A60100
:100EA800A60A00300A128A11C9210A128A1183126D
:100EB80003132A080B3E84000A128A1500200A121E
:100EC8008A11FF007F08A50003300A128A116F27D4
:100ED8000A128A11080083120313A800872F250815
:100EE800FF007F0885009D2F2508FF007F088600EA
:100EF8009D2F2508FF007F0887009D2F2508FF00EC
:100F08007F0888009D2F2808A600A7012708003A17
:100F180003198F2F9D2F2608003A0319732F013AC2
:100F28000319782F033A03197D2F013A0319822FE9
:100F38009D2F0800F5000230FF007F08F000F10146
:100F480000300A128A11FF200A128A110330FF00AA
:100F58007F08F000F101F10A00300A128A11FF201F
:100F68000A128A117508013E84000A128A150020A7
:100F78000A128A11FF007F08F00003300A128A1152
:100F8800A8260A128A110800F5000330FF007F081E
:100F9800F000F10100300A128A11FF200A128A11AA
:100FA8000230FF007F08F000F101F10A00300A1258
:100FB8008A11FF200A128A1175080B3E84000A1252
:100FC8008A1500200A128A11FF007F08F0000330FA
:100FD8000A128A11A8260A128A110800831203131A
:100FE800BE013C30FF007F08BF00BC01BB01BA0155
:020FF8000800EF
:1010000008308A000408840A820700343F3406341A
:101010005B344F3466346D347D3407347F346F3441
:101020003F3406345B344F3466346D347D340734DA
:041030007F346F3466
:101E600083120313A5002508FF007F08B9000800AE
:101E700083120313A5002508FF007F08B80008009F
:101E800083120313A5002508FF007F08B700080090
:101E900083120313BE010A128A1596270A128A15A5
:101EA000080083120313BE010A128A15C8270A12FA
:101EB0008A15080083120313BE01BE0A3F080A12E6
:101EC0008A11D5230A128A15080083120313BE0152
:101ED000BE0A3F080A128A1185220A128A150800D2
:101EE000831203133E03031D762F772F7D2F0A12D3
:101EF0008A1548270A128A15822F0A128A155A272C
:101F00000A128A15080001300A128A1530270A12AF
:101F10008A1504300A128A1538270A128A150730E2
:101F20000A128A1540270A128A1508000230FF009B
:101F30007F08F000F10100300A128A11FF200A1216
:101F40008A150330FF007F08F000F10100300A120B
:101F50008A11FF200A128A150800831203133B0816
:101F6000031DB32FB42FB72FBB01BB0AC72F3E03EE
:101F7000031DBB2FBC2FC72F24303F02031CC12FD2
:101F8000C22FC72F0530BF02BA01BA0AC72F0800F7
:101F90000230FF007F0883120313A500A601003062
:101FA0000A128A11C9210A128A150330FF007F081C
:101FB00083120313A500A60100300A128A11C92159
:101FC0000A128A150800831203133B08031DE92F28
:101FD000EA2FED2FBB01BB0AFF2F3E03031DF12F9C
:101FE000F22FFF2F4B303F020318F72FF82FFF2F50
:101FF0000530FF007F08BF07BA01BA0AFF2F0800AB
:02400E00713F00
:00000001FF
