:020000040000FA
:060000000A128A1110280B
:10000800FE00030EF1000A08F200831203137F08B2
:10001800F3000A128A11A1290A128A111328F80179
:10002800F90183010A128A11D32983120313A0004C
:1000380004302002031821282228E42808307402FA
:10004800031827282828E4287503031D2C282D28A1
:10005800882872280130F600740A34280310F60D37
:10006800FF3E031D32287608FF3AFF007F088316FB
:1000780003138505E4280130F600740A45280310A7
:10008800F60DFF3E031D43287608FF3AFF007F0860
:10009800831603138605E4280130F600740A5628EF
:1000A8000310F60DFF3E031D54287608FF3AFF00A3
:1000B8007F08831603138705E4280130F600740AC5
:1000C80067280310F60DFF3E031D65287608FF3AE2
:1000D800FF007F08831603138805E4282008F6002C
:1000E800F7017708003A03197A28E4287608003AD5
:1000F80003192E28013A03193F28033A03195028F7
:10010800013A03196128E4287508031D8C288D28F5
:10011800E428CE280130F600740A94280310F60D5E
:10012800FF3E031D92287608FF007F0883160313FD
:100138008504E4280130F600740AA4280310F60D9B
:10014800FF3E031DA2287608FF007F0883160313CD
:100158008604E4280130F600740AB4280310F60D6A
:10016800FF3E031DB2287608FF007F08831603139D
:100178008704E4280130F600740AC4280310F60D39
:10018800FF3E031DC2287608FF007F08831603136D
:100198008804E4282008F600F7017708003A0319D4
:1001A800D628E4287608003A03198E28013A03195C
:1001B8009E28033A0319AE28013A0319BE28E428F9
:1001C800080083120313A000043020020318ED284E
:1001D800EE28A029083074020318F328F428A0296F
:1001E8007503031DF828F928482932290130F6003B
:1001F800740A00290310F60DFF3E031DFE28760839
:10020800FF007F088504A0290130F600740A0E2932
:100218000310F60DFF3E031D0C297608FF007F082A
:100228008604A0290130F600740A1C290310F60D73
:10023800FF3E031D1A297608FF007F088704A029BE
:100248000130F600740A2A290310F60DFF3E031D3B
:1002580028297608FF007F088804A0292008F600CE
:10026800F7017708003A03193A29A0297608003AD5
:100278000319FA28013A03190829033A0319162918
:10028800013A03192429A0297508031D4C294D2971
:10029800A0298A290130F600740A54290310F60DA2
:1002A800FF3E031D52297608FF3AFF007F088505A7
:1002B800A0290130F600740A63290310F60DFF3EE9
:1002C800031D61297608FF3AFF007F088605A029EB
:1002D8000130F600740A72290310F60DFF3E031D63
:1002E80070297608FF3AFF007F088705A0290130AA
:1002F800F600740A81290310F60DFF3E031D7F29BD
:100308007608FF3AFF007F088805A0292008F60034
:10031800F7017708003A03199229A0297608003ACC
:1003280003194E29013A03195D29033A03196C2967
:10033800013A03197B29A02908000C08F0000230B3
:100348000310F00CFF3E031DA429701CAC29AD2935
:10035800C6290130F8070318F90A0030F907E83010
:100368007806033003197906031DBB29BC29C22965
:100378000130FF007F088706F801F901FB30FF0014
:100388007F088C05FB30FF007F088C057308FF0091
:1003980072088A00710E8300FE0E7E0E0900F401B9
:1003A800F501F50A02300A128A1119200A128A1177
:1003B800F401F50102300A128A11E5200A128A11A5
:1003C8000A128A11ED210A128A11E9290A128A11E0
:1003D8001028831203138E018F012130FF007F083C
:1003E80090000B30FF007F08970003309600E8303C
:0E03F8009500831603130C150B178B170800C6
:02400E00713F00
:00000001FF
