:020000040000FA
:060000000A128A11122809
:10000800FE00030E83120313BA000408BB000A089B
:10001800BC007F08BD000A128A114A2D0A128A11F3
:10002800152883132030840039300A128A152D24AC
:100038000A128A1183010A128A119B2E2228FF00B4
:1000480000308A007F08820728280A128A15E52CC2
:100058000A128A158C2D0A128A151E2D8312031373
:10006800D001D10102300A128A1549260A128A11D2
:10007800831203133F08AD003E08AC002C08BE00F5
:100088002D08BF00C001C1010030C5000030C40008
:100098001330C3008830C2000A128A11E3260A12FC
:1000A8008A11831203133E08CB003F08CC00400896
:1000B800CD004108CE000A300310CE0CCD0CCC0C7C
:1000C800CB0CFF3E031D60284C08AB004B08AA0070
:1000D8000A30BE000030BF002B08C1002A08C0004B
:1000E8000A128A112B270A128A11831203133E0857
:1000F800FF007F08B3003308FF003208203E840069
:100108007F08831380000130FF007F08B2070A30A0
:100118003206031D90289128FF28B201CF014F080D
:10012800203E840000085007D00051080318510AE7
:10013800D1000130FF007F08CF070A304F02031CAF
:10014800A628A72893280A30BE000030BF0051080F
:10015800C1005008C0000A128A112B270A128A11FE
:10016800831203133E08CB00CC014B08D0004C0887
:10017800D1003808053ECB00003003180130CC0010
:100188004C085102031DCA284B085002031CCD28F5
:10019800CE28D9280A128A15C7240A128A110A12E7
:1001A8008A15AA240A128A11FF283808FB3ECB00B8
:1001B800FF3003180030CC0051084C02031DE6281C
:1001C80050084B02031CE928EA28F5280A128A1568
:1001D800D6240A128A110A128A159C240A128A1134
:1001E800FF280A128A159C240A128A110A128A15F3
:1001F800AA240A128A11080083120313C2000430C9
:100208004202031808290929CB2908303E0203189D
:100218000E290F29CB293F03031D132914296F2900
:1002280059290130C0003E0A1B290310C00DFF3EAA
:10023800031D19294008FF3AFF007F08831603139E
:100248008505CB290130C0003E0A2C290310C00DBA
:10025800FF3E031D2A294008FF3AFF007F08831646
:1002680003138605CB290130C0003E0A3D2903103F
:10027800C00DFF3E031D3B294008FF3AFF007F08E1
:10028800831603138705CB290130C0003E0A4E2987
:100298000310C00DFF3E031D4C294008FF3AFF0024
:1002A8007F08831603138805CB294208C000C101C3
:1002B8004108003A03196129CB294008003A03197B
:1002C8001529013A03192629033A03193729013A4E
:1002D80003194829CB293F08031D73297429CB2901
:1002E800B5290130C0003E0A7B290310C00DFF3E2E
:1002F800031D79294008FF007F088316031385042E
:10030800CB290130C0003E0A8B290310C00DFF3EE7
:10031800031D89294008FF007F08831603138604FC
:10032800CB290130C0003E0A9B290310C00DFF3EB7
:10033800031D99294008FF007F08831603138704CB
:10034800CB290130C0003E0AAB290310C00DFF3E87
:10035800031DA9294008FF007F088316031388049A
:10036800CB294208C000C1014108003A0319BD2940
:10037800CB294008003A03197529013A0319852940
:10038800033A03199529013A0319A529CB2908002D
:10039800F400043074020318D229D329952A0830AE
:1003A80070020318D829D929952A7103031DDD295C
:1003B800DE29352A1F2A0130F200700AE5290310C8
:1003C800F20DFF3E031DE3297208FF007F08831228
:1003D80003138504952A0130F200700AF5290310E9
:1003E800F20DFF3E031DF3297208FF007F088312F8
:1003F80003138604952A0130F200700A052A0310B7
:10040800F20DFF3E031D032A7208FF007F088312C6
:1004180003138704952A0130F200700A152A031085
:10042800F20DFF3E031D132A7208FF007F08831296
:1004380003138804952A7408F200F3017308003A3C
:100448000319272A952A7208003A0319DF29013A65
:100458000319EF29033A0319FF29013A03190F2A4F
:10046800952A7108031D392A3A2A952A7F2A0130CC
:10047800F200700A412A0310F20DFF3E031D3F2AC5
:100488007208FF3AFF007F08831203138505952A37
:100498000130F200700A522A0310F20DFF3E031DCC
:1004A800502A7208FF3AFF007F088312031386055B
:1004B800952A0130F200700A632A0310F20DFF3EFC
:1004C800031D612A7208FF3AFF007F088312031395
:1004D8008705952A0130F200700A742A0310F20D7C
:1004E800FF3E031D722A7208FF3AFF007F0883123D
:1004F80003138805952A7408F200F3017308003A7B
:100508000319872A952A7208003A03193B2A013AE7
:1005180003194C2A033A03195D2A013A03196E2A72
:10052800952A080083120313C200043042020318FC
:100538009E2A9F2A512B08303E020318A42AA52A76
:10054800512B3F03031DA92AAA2AF92AE32A0130BD
:10055800C0003E0AB12A0310C00DFF3E031DAF2A9A
:100568004008FF007F088504512B0130C0003E0A77
:10057800BF2A0310C00DFF3E031DBD2A4008FF001F
:100588007F088604512B0130C0003E0ACD2A031093
:10059800C00DFF3E031DCB2A4008FF007F088704DB
:1005A800512B0130C0003E0ADB2A0310C00DFF3E6C
:1005B800031DD92A4008FF007F088804512B4208F0
:1005C800C000C1014108003A0319EB2A512B400829
:1005D800003A0319AB2A013A0319B92A033A031955
:1005E800C72A013A0319D52A512B3F08031DFD2AB2
:1005F800FE2A512B3B2B0130C0003E0A052B03106D
:10060800C00DFF3E031D032B4008FF3AFF007F0883
:100618008505512B0130C0003E0A142B0310C00D74
:10062800FF3E031D122B4008FF3AFF007F08860596
:10063800512B0130C0003E0A232B0310C00DFF3E92
:10064800031D212B4008FF3AFF007F088705512B27
:100658000130C0003E0A322B0310C00DFF3E031DBF
:10066800302B4008FF3AFF007F088805512B4208CD
:10067800C000C1014108003A0319432B512B40081F
:10068800003A0319FF2A013A03190E2B033A0319FA
:100698001D2B013A03192C2B512B0800F3000430B1
:1006A80073020318582B592BBA2B08307002031801
:1006B8005E2B5F2BBA2BA42B831203130508F100C2
:1006C800700A682B0310F10CFF3E031D662B71089E
:1006D8000139FF007F08F400BE2B831203130608BC
:1006E800F100700A792B0310F10CFF3E031D772BE4
:1006F80071080139FF007F08F400BE2B8312031331
:100708000708F100700A8A2B0310F10CFF3E031D45
:10071800882B71080139FF007F08F400BE2B831273
:1007280003130808F100700A9B2B0310F10CFF3E1D
:10073800031D992B71080139FF007F08F400BE2BB7
:100748007308F100F2017208003A0319AC2BBE2BB2
:100758007108003A0319602B013A0319712B033A07
:100768000319822B013A0319932BBE2BFF30FF008C
:100778007F08F4007408080083120313C301BF1F25
:10078800C62BC72BCE2BBE09BF09BE0A0319BF0A49
:10079800C301C30AC11FD12BD22BDB2BC009C1094E
:1007A800C00A0319C10A0130FF007F08C306C4014B
:1007B800C5013E083F040319E22BE32B1A2CC201A2
:1007C800C20AF12B01300310BE0DBF0DFF3E031D01
:1007D800E72B0130FF007F08C207BF1FF42BF52B62
:1007E800E62B01300310C40DC50DFF3E031DF62B8B
:1007F8003F084102031D022C3E084002031C052C41
:10080800062C0D2C3E08C0023F08031CC103C10280
:10081800441401300310BF0CBE0CFF3E031D0E2C08
:100828000130C202031D192C1A2CF52B4308031999
:100838001E2C1F2C242CC409C509C40A0319C50A77
:100848004508BF004408BE000800F501F11F2D2C23
:100858002E2C352CF009F109F00A0319F10AF501DB
:10086800F50AF31F382C392C422CF209F309F20A45
:100878000319F30A0130FF007F08F506F601F701B6
:10088800700871040319492C4A2C812CF401F40ACC
:10089800582C01300310F00DF10DFF3E031D4E2CB6
:1008A8000130FF007F08F407F11F5B2C5C2C4D2CF6
:1008B80001300310F60DF70DFF3E031D5D2C710886
:1008C8007302031D692C70087202031C6C2C6D2CBA
:1008D800742C7008F2027108031CF303F3027614F7
:1008E80001300310F10CF00CFF3E031D752C013094
:1008F800F402031D802C812C5C2C75080319852CAF
:10090800862C8B2CF609F709F60A0319F70A7708DB
:10091800F1007608F000080083120313CA000A30B9
:10092800BE000030BF004A08C600C7014608C00024
:100938004708C1000A128A11EF240A128A11831289
:1009480003133E08FF007F08C8000A30BE000030CD
:10095800BF004A08C600C7014608C0004708C100D2
:100968000A128A11C0230A128A11831203133E083D
:10097800FF007F08C90048080A128A15D6260A12FD
:100988008A11033083120313C7009730C600C60BC1
:10099800CB2CC70BCB2C8312031349080A128A15D8
:1009A800A6260A128A11033083120313C700973050
:1009B800C600C60BDD2CC70BDD2C0430FF007F08FA
:1009C80083120313BE00BF0100300A128A11962257
:1009D8000A128A11080083120313C301C11FF52CE0
:1009E800F62CFD2CC009C109C00A0319C10AC301AC
:1009F800C30ABF1F002D012D062DBE09BF09BE0A5F
:100A08000319BF0A3E083F0403190B2D0C2D3B2D7B
:100A1800C201C20A1A2D01300310BE0DBF0DFF3EE0
:100A2800031D102D0130FF007F08C207BF1F1D2DB9
:100A38001E2D0F2D3F084102031D242D3E084002A4
:100A4800031C272D282D2E2D3E08C0023F08031C0D
:100A5800C103C10201300310BF0CBE0CFF3E031DD1
:100A68002F2D0130C202031D3A2D3B2D1E2D4308A8
:100A780003193F2D402D452DC009C109C00A03198E
:100A8800C10A4108BF004008BE0008000B08B900B1
:100A980001300310B90CFF3E031D4D2D391C552D97
:100AA800562D612D31080A128A1123200A128A1143
:100AB800FD30FF007F088B05982D0B1C642D652DDC
:100AC800982D0430FF007F08F00001300A128A11C7
:100AD80052230A128A11003A031D732D742D7D2D9D
:100AE8008312031330080A128A1123200A128A116A
:100AF800942D0530FF007F08F00001300A128A119A
:100B080052230A128A11003A031D8B2D8C2D942D25
:100B1800831203132F080A128A1123200A128A113A
:100B2800FE30FF007F088B05831203133D08FF008A
:100B38003C088A003B0884003A0E8300FE0E7E0EB5
:100B48000900F501F31FA92DAA2DB12DF209F3090A
:100B5800F20A0319F30AF501F50AF11FB42DB52DB0
:100B6800BA2DF009F109F00A0319F10A70087104A5
:100B78000319BF2DC02DEF2DF401F40ACE2D01303D
:100B88000310F00DF10DFF3E031DC42D0130FF00D1
:100B98007F08F407F11FD12DD22DC32D71087302E0
:100BA800031DD82D70087202031CDB2DDC2DE22DED
:100BB8007008F2027108031CF303F30201300310FA
:100BC800F10CF00CFF3E031DE32D0130F402031D70
:100BD800EE2DEF2DD22D75080319F32DF42DF92DD7
:100BE800F209F309F20A0319F30A7308F10072080B
:100BF800F0000800FC000A30F0000030F1007C082A
:100C0800F800F9017808F2007908F3000A128A114D
:100C1800A5250A128A117008FF007F08FA000A3019
:100C2800F0000030F1007C08F800F9017808F200C3
:100C38007908F3000A128A1129240A128A11700805
:100C4800FF007F08FB007A080A128A15F5250A12A8
:100C58008A110330F9009730F800F80B312EF90BA0
:100C6800312E362E7B080A128A15CB250A128A11D4
:100C78000330F9009730F800F80B402EF90B402E9E
:100C8800452E0430FF007F08F000F10100300A1201
:100C98008A11CC210A128A11080083120313CE018B
:100CA8003503031D582E592E9A2ECF01CE01380830
:100CB8000A128A1190240A128A110130FF007F0853
:100CC80083120313CE07FA304E02031C6C2E6D2ECE
:100CD8005B2E0A128A1539250A128A1106308312E8
:100CE8000313CD001330CC00AD30CB00CB0B7A2EE4
:100CF800CC0B7A2ECD0B7A2E831203133403031DEB
:100D0800862E872E892ECF01B4010130FF007F087F
:100D1800CF0705304F02031C922E932E5A2EB50191
:100D280038080A128A15A9250A128A1108000A1217
:100D38008A1570250A128A110A128A1554250A1270
:100D48008A110A128A150B250A128A110A128A15A3
:100D58001F260A128A110A128A1567270A128A118F
:100D68000A128A1171270A128A110A128A15F8249E
:100D78000A128A110A128A1575240A128A110A128D
:100D88008A1599270A128A11D82E0A128A155C2404
:100D98000A128A110A128A1151260A128A110A1293
:100DA8008A1132200A128A11831203133703031996
:100DB800DE2EDF2EC92ED82E0A128A1112280030F4
:100DC80083120313CA000030C9000030C800003085
:100DD800C7003E1CF02EF12E082F4208C707430813
:100DE80003110318013E0319FA2EC807440803111A
:100DF8000318013E0319012FC907450803110318F9
:100E0800013E0319082FCA070130C6000310C20D9E
:100E1800C30DC40DC50DC60B0A2F01300310C10C3C
:100E2800C00CBF0CBE0CFF3E031D122F410840042E
:100E38003F043E04031D212F222FED2E4A08C10036
:100E48004908C0004808BF004708BE0008008312D0
:100E58000313C201C3013E083F040319342F352F81
:100E68006C2FC401C40A432F01300310BE0DBF0DFF
:100E7800FF3E031D392F0130FF007F08C407BF1F45
:100E8800462F472F382F01300310C20DC30DFF3EE8
:100E9800031D482F3F084102031D542F3E084002FE
:100EA800031C572F582F5F2F3E08C0023F08031C12
:100EB800C103C102421401300310BF0CBE0CFF3E37
:100EC800031D602F0130C402031D6B2F6C2F472FA9
:100ED8004308BF004208BE0008000430FF007F0836
:100EE80083120313BE00BF01BF0A00300A128A1121
:100EF80000210A128A110530FF007F0883120313AC
:100F0800BE00BF01BF0A00300A128A1100210A126E
:100F18008A1183120313BE0103300A128A11B12702
:100F28000A128A110430FF007F0883120313BE00DF
:100F3800BF0100300A128A1196220A128A1105305E
:100F4800FF007F0883120313BE00BF0100300A129E
:100F58008A1196220A128A11080083120313C1000B
:100F6800D12F3E08FF007F08831603138500E72F63
:100F78003E08FF007F08831603138600E72F3E080C
:100F8800FF007F08831603138700E72F3E08FF0042
:100F98007F08831603138800E72F4108BF00C001AC
:100FA8004008003A0319D92FE72F3F08003A0319E0
:100FB800B52F013A0319BC2F033A0319C32F013A7D
:100FC8000319CA2FE72F08000430FF007F08F0003C
:100FD800F10100300A128A11CC210A128A11053057
:100FE800FF007F08F000F10100300A128A11CC21BD
:060FF8000A128A11080034
:1010000008308A000408840A820700343F3406341A
:101010005B344F3466346D347D3407347F346F3441
:101020003F3406345B344F3466346D347D340734DA
:041030007F346F3466
:10182A0083120313BE003E08FF007F08B1000800C0
:10183A0083120313BE003E08FF007F08B0000800B1
:10184A0083120313BE003E08FF007F08AF000800A2
:10185A0064008001840A04060319003404062E2C4D
:10186A000A128A1582240A128A158316031311147E
:10187A0008000A128A1582240A128A15831603138B
:10188A00111508000A128A1582240A128A1583166B
:10189A0003139114080083120313B701B70A33081C
:1018AA000A128A11FE250A128A158B15080083125C
:1018BA000313B701B70A33080A128A1190240A12CD
:1018CA008A158B15080083120313B7010A128A11AD
:1018DA00E8270A128A15F730FF007F088B050800EF
:1018EA0083120313B7010A128A1539250A128A15B7
:1018FA00F730FF007F088B050800831603131419BD
:10190A00872C882C822C11081F39031D8D2C8E2CB4
:10191A00822C08004130FF007F08831203139F00C6
:10192A008030FF007F08831603139F0008000230EF
:10193A00FF007F0883120313BE00BF0102300A12A0
:10194A008A1196220A128A1508000530FF007F08BC
:10195A0083120313BE00BF0102300A128A119622B3
:10196A000A128A15080083120313BE000A128A1586
:10197A0082240A128A15831203133E08FF007F0885
:10198A00930008000230FF007F0883120313BE0091
:10199A00BF01BF0A02300A128A1196220A128A1558
:1019AA0008000530FF007F0883120313BE00BF0141
:1019BA00BF0A02300A128A1196220A128A150800F0
:1019CA00831203133703031DEB2CEC2CF22C0A129F
:1019DA008A1568240A128A15F72C0A128A155024C5
:1019EA000A128A15080001300A128A1515240A12E9
:1019FA008A1504300A128A151D240A128A1507301C
:101A0A000A128A1525240A128A1508000230FF00D4
:101A1A007F0883120313BE00BF0100300A128A1125
:101A2A0000210A128A150A128A158F240A128A15A7
:101A3A000800831203133508031D242D252D282D94
:101A4A00B501B50A382D3703031D2C2D2D2D382D40
:101A5A0024303802031C322D332D382D0530B802BC
:101A6A00B401B40A382D08000430FF007F0883123D
:101A7A000313BE00BF0100300A128A1196220A120D
:101A8A008A150530FF007F0883120313BE00BF01C9
:101A9A0000300A128A1196220A128A1508000230A8
:101AAA00FF007F0883120313BE00BF01BF0A023082
:101ABA000A128A1100210A128A150230FF007F08D1
:101ACA0083120313BE00BF0102300A128A11962242
:101ADA000A128A1508000530FF007F0883120313D3
:101AEA00BE00BF01BF0A02300A128A1100210A127F
:101AFA008A150530FF007F0883120313BE00BF0159
:101B0A0002300A128A1196220A128A1508008312D2
:101B1A0003133508031D922D932D962DB501B50A91
:101B2A00A82D3703031D9A2D9B2DA82D4B30380263
:101B3A000318A02DA12DA82D0530FF007F08B80796
:101B4A00B401B40AA82D080083120313BF000A12B5
:101B5A008A1535240A128A15A0300A128A15B82461
:101B6A000A128A1500300A128A15B8240A128A152E
:101B7A00831203133F080A128A15B8240A128A1517
:101B8A000A128A153E240A128A150800F500053041
:101B9A00FF007F08F000F10100300A128A11CC21FF
:101BAA000A128A150430FF007F08F000F101F10AD9
:101BBA0000300A128A11CC210A128A1575080B3EC6
:101BCA0084000A128A1500200A128A15FF007F086B
:101BDA00F00003300A128A15CB270A128A15080068
:101BEA00F5000430FF007F08F000F10100300A120E
:101BFA008A11CC210A128A150530FF007F08F000ED
:101C0A00F101F10A00300A128A11CC210A128A154E
:101C1A007508013E84000A128A1500200A128A15E4
:101C2A00FF007F08F00003300A128A15CB270A1238
:101C3A008A1508000430FF007F08831603139300F7
:101C4A002830FF007F0883120313940083160313BE
:101C5A0094010330FF007F0883120313BE00BF0103
:101C6A0002300A128A1100210A128A150430FF0072
:101C7A007F0883120313BE00BF0102300A128A11C1
:101C8A0000210A128A15080083120313C1004108B1
:101C9A00C00002300310C00DFF3E031D4F2E03107B
:101CAA00400DFF007F089F04133083120313C00006
:101CBA00C00B5D2E831203131F151F08C0000230CC
:101CCA000310C00CFF3E031D652E40186D2E6E2EAC
:101CDA00622E1E08BF00831603131E088312031305
:101CEA00BE00080083120313C1008F2E3E08FF00B6
:101CFA007F088500A52E3E08FF007F088600A52ED6
:101D0A003E08FF007F088700A52E3E08FF007F08D7
:101D1A008800A52E4108BF00C0014008003A0319F7
:101D2A00972EA52E3F08003A03197B2E013A031974
:101D3A00802E033A0319852E013A03198A2EA52EFD
:101D4A00080083120313C3000530FF007F08BE009A
:101D5A00BF0100300A128A1196220A128A1504302B
:101D6A00FF007F0883120313BE00BF01BF0A0030C1
:101D7A000A128A1196220A128A1583120313430839
:101D8A000B3E84000A128A1500200A128A15FF00E7
:101D9A007F08BE0003300A128A1577260A128A15AE
:101DAA00080083120313C3000430FF007F08BE003B
:101DBA00BF0100300A128A1196220A128A150530CA
:101DCA00FF007F0883120313BE00BF01BF0A003061
:101DDA000A128A1196220A128A15831203134308D9
:101DEA00013E84000A128A1500200A128A15FF0091
:101DFA007F08BE0003300A128A1577260A128A154E
:101E0A0008000A128A1535240A128A15A0300A1205
:101E1A008A15B8240A128A1500300A128A15B824BB
:101E2A000A128A150A128A1547240A128A15A1303B
:101E3A000A128A15B8240A128A1500300A128A155B
:101E4A0036270A128A15FF007F0883120313C0007F
:101E5A000A128A153E240A128A15831203134008AD
:101E6A00080083120313BE000A128A1582240A127A
:101E7A008A158316031391150A128A1582240A12E7
:101E8A008A15831203131308FF007F08BF000A1282
:101E9A008A1582240A128A15831203133E0803192B
:101EAA00572F582F5C2F831603139116622FDF309A
:101EBA00FF007F088316031391051116831203137B
:101ECA003F08080083120313BE01BF0101300A1242
:101EDA008A1100210A128A150430FF007F08831232
:101EEA000313BE00BF0101300A128A1100210A122F
:101EFA008A150530FF007F0883120313BE00BF0155
:101F0A0001300A128A1100210A128A157F30FF0055
:101F1A007F08831603138105BF30FF007F08810500
:101F2A000B168B158B1708000A128A1506270A1238
:101F3A008A1583120313C1004B3041020318A62FDE
:101F4A00A72FB62F0A128A1506270A128A15831294
:101F5A000313C10024304102031CB42FB52FB62F3E
:101F6A00BC2F3C300A128A15A9250A128A150A12B0
:101F7A008A1506270A128A15FF007F08831203139F
:101F8A00B800B701B601B501B4010800F300E92FA2
:101F9A007008FF007F08831203138500FF2F700863
:101FAA00FF007F08831203138600FF2F7008FF00CB
:101FBA007F08831203138700FF2F7008FF007F0832
:101FCA00831203138800FF2F7308F100F2017208CD
:101FDA00003A0319F12FFF2F7108003A0319CD2F88
:101FEA00013A0319D42F033A0319DB2F013A0319D3
:061FFA00E22FFF2F08009A
:02400E00713F00
:00000001FF
