:020000040000FA
:100000000A128A11FC2F00308A000408840A820731
:1000100000343F3406345B344F3466346D347D3401
:1000200007347F346F343F3406345B344F346634E6
:0A0030006D347D3407347F346F34E3
:100872000A128A1118250A128A1123300A128A11C1
:1008820055250A128A1128300A128A1155250A1290
:100892008A112D300A128A1155250A128A11323014
:1008A2000A128A1155250A128A113E2C0A128A113D
:1008B2000028F5000330FF007F08F000F10100304E
:1008C2000A128A1168260A128A110230FF007F0872
:1008D200F000F101F10A00300A128A1168260A12A8
:1008E2008A1175080B3E84000A128A1103200A122B
:1008F2008A11FF007F08F00003300A128A11AE2429
:100902000A128A110800F5000230FF007F08F00089
:10091200F10100300A128A1168260A128A11033084
:10092200FF007F08F000F101F10A00300A128A117B
:1009320068260A128A117508013E84000A128A1179
:1009420003200A128A11FF007F08F00003300A1206
:100952008A11AE240A128A110800F300CC2C700806
:10096200FF007F08831203138500E22C7008FF004A
:100972007F08831203138600E22C7008FF007F08B1
:10098200831203138700E22C7008FF007F08831292
:1009920003138800E22C7308F100F2017208003A96
:1009A2000319D42CE22C7108003A0319B02C013A35
:1009B2000319B72C033A0319BE2C013A0319C52CAB
:1009C200E22C0800F300012D7008FF007F08831657
:1009D20003138500172D7008FF007F088316031389
:1009E2008600172D7008FF007F0883160313870007
:1009F200172D7008FF007F08831603138800172D38
:100A02007308F100F2017208003A0319092D172D3B
:100A12007108003A0319E52C013A0319EC2C033A48
:100A22000319F32C013A0319FA2C172D080002308E
:100A3200FF007F08F000F101F10A00300A128A116A
:100A420032270A128A110330FF007F08F000F101F9
:100A5200F10A00300A128A1132270A128A11F001B1
:100A620003300A128A11E3240A128A110230FF00AB
:100A72007F08F000F10100300A128A1168260A127A
:100A82008A110330FF007F08F000F10100300A12E2
:100A92008A1168260A128A11F00100300A128A119C
:100AA200AE240A128A110800FC000A30F00000305D
:100AB200F1007C08F800F9017808F2007908F300E7
:100AC2000A128A11A8250A128A117008FF007F08EB
:100AD200FA000A30F0000030F1007C08F800F90159
:100AE2007808F2007908F3000A128A1101260A1224
:100AF2008A117008FF007F08FB00FD017A080A12C4
:100B02008A1184240A128A110D30F900FB30F80090
:100B1200F80B892DF90B892D8E2D7B080A128A116B
:100B22005A240A128A110D30F900FB30F800F80B32
:100B3200982DF90B982D9D2D0130FF007F08FD07A0
:100B420032307D02031CA62DA72D7F2D0800F50152
:100B5200F31FAC2DAD2DB42DF209F309F20A0319DE
:100B6200F30AF501F50AF11FB72DB82DBD2DF009D5
:100B7200F109F00A0319F10A700871040319C22D70
:100B8200C32DF22DF401F40AD12D01300310F00D22
:100B9200F10DFF3E031DC72D0130FF007F08F40752
:100BA200F11FD42DD52DC62D71087302031DDB2D27
:100BB20070087202031CDE2DDF2DE52D7008F20293
:100BC2007108031CF303F30201300310F10CF00C63
:100BD200FF3E031DE62D0130F402031DF12DF22D1F
:100BE200D52D75080319F62DF72DFC2DF209F30901
:100BF200F20A0319F30A7308F1007208F000080000
:100C0200F501F11F052E062E0D2EF009F109F00A4D
:100C12000319F10AF501F50AF31F102E112E1A2EEF
:100C2200F209F309F20A0319F30A0130FF007F08FF
:100C3200F506F601F701700871040319212E222E20
:100C4200592EF401F40A302E01300310F00DF10D8B
:100C5200FF3E031D262E0130FF007F08F407F11F1F
:100C6200332E342E252E01300310F60DF70DFF3EE4
:100C7200031D352E71087302031D412E7008720286
:100C8200031C442E452E4C2E7008F2027108031CE0
:100C9200F303F302761401300310F10CF00CFF3E63
:100CA200031D4D2E0130F402031D582E592E342EF1
:100CB200750803195D2E5E2E632EF609F709F60AF2
:100CC2000319F70A7708F1007608F0000800F4002B
:100CD2000430740203186E2E6F2E312F083070020A
:100CE2000318742E752E312F7103031D792E7A2E5F
:100CF200D12EBB2E0130F200700A812E0310F20DAC
:100D0200FF3E031D7F2E7208FF007F08831203132C
:100D12008504312F0130F200700A912E0310F20D7A
:100D2200FF3E031D8F2E7208FF007F0883120313FC
:100D32008604312F0130F200700AA12E0310F20D49
:100D4200FF3E031D9F2E7208FF007F0883120313CC
:100D52008704312F0130F200700AB12E0310F20D18
:100D6200FF3E031DAF2E7208FF007F08831203139C
:100D72008804312F7408F200F3017308003A031952
:100D8200C32E312F7208003A03197B2E013A031940
:100D92008B2E033A03199B2E013A0319AB2E312FE6
:100DA2007108031DD52ED62E312F1B2F0130F200D4
:100DB200700ADD2E0310F20DFF3E031DDB2E7208BA
:100DC200FF3AFF007F08831203138505312F01309C
:100DD200F200700AEE2E0310F20DFF3E031DEC2E00
:100DE2007208FF3AFF007F08831203138605312F32
:100DF2000130F200700AFF2E0310F20DFF3E031DB8
:100E0200FD2E7208FF3AFF007F0883120313870545
:100E1200312F0130F200700A102F0310F20DFF3E45
:100E2200031D0E2F7208FF3AFF007F08831203137F
:100E32008805312F7408F200F3017308003A031990
:100E4200232F312F7208003A0319D72E013A0319C2
:100E5200E82E033A0319F92E013A03190A2F312F0A
:100E62000800F400043074020318382F392FFB2FC6
:100E72000830700203183E2F3F2FFB2F7103031D12
:100E8200432F442F9F2F892F0130F200700A4B2FDE
:100E92000310F20DFF3E031D492F7208FF3AFF00B7
:100EA2007F08831603138505FB2F0130F200700AB9
:100EB2005C2F0310F20DFF3E031D5A2F7208FF3AFA
:100EC200FF007F08831603138605FB2F0130F20013
:100ED200700A6D2F0310F20DFF3E031D6B2F720877
:100EE200FF3AFF007F08831603138705FB2F0130AB
:100EF200F200700A7E2F0310F20DFF3E031D7C2FBD
:100F02007208FF3AFF007F08831603138805FB2F40
:100F12007408F200F3017308003A0319912FFB2FB2
:100F22007208003A0319452F013A0319562F033A62
:100F32000319672F013A0319782FFB2F7108031D3C
:100F4200A32FA42FFB2FE52F0130F200700AAB2F45
:100F52000310F20DFF3E031DA92F7208FF007F0848
:100F6200831603138504FB2F0130F200700ABB2F96
:100F72000310F20DFF3E031DB92F7208FF007F0818
:100F8200831603138604FB2F0130F200700ACB2F65
:100F92000310F20DFF3E031DC92F7208FF007F08E8
:100FA200831603138704FB2F0130F200700ADB2F34
:100FB2000310F20DFF3E031DD92F7208FF007F08B8
:100FC200831603138804FB2F7408F200F3017308DD
:100FD200003A0319ED2FFB2F7208003A0319A52FCF
:100FE200013A0319B52F033A0319C52F013A031920
:0E0FF200D52FFB2F080083010A128A11392C1B
:02400E00713F00
:00000001FF
