:020000040000FA
:060000000A128A1110280B
:10000800FE00030EF1000A08F200831203137F08B2
:10001800F3000A128A11632A0A128A11132883012B
:100028000A128A11AB29F8000430780203181D2837
:100038001E28E02808307402031823282428E02802
:100048007503031D2828292884286E280130F60006
:10005800740A30280310F60DFF3E031D2E2876087B
:10006800FF3AFF007F08831603138505E028013057
:10007800F600740A41280310F60DFF3E031D3F28C1
:100088007608FF3AFF007F08831603138605E028E9
:100098000130F600740A52280310F60DFF3E031DC6
:1000A80050287608FF3AFF007F0883160313870558
:1000B800E0280130F600740A63280310F60DFF3EAD
:1000C800031D61287608FF3AFF007F088316031393
:1000D8008805E0287808F600F7017708003A031940
:1000E8007628E0287608003A03192A28013A0319E5
:1000F8003B28033A03194C28013A03195D28E028E4
:100108007508031D88288928E028CA280130F600C8
:10011800740A90280310F60DFF3E031D8E287608FA
:10012800FF007F08831603138504E0280130F600DA
:10013800740AA0280310F60DFF3E031D9E287608BA
:10014800FF007F08831603138604E0280130F600B9
:10015800740AB0280310F60DFF3E031DAE2876087A
:10016800FF007F08831603138704E0280130F60098
:10017800740AC0280310F60DFF3E031DBE2876083A
:10018800FF007F08831603138804E0287808F60028
:10019800F7017708003A0319D228E0287608003AD0
:1001A80003198A28013A03199A28033A0319AA2835
:1001B800013A0319BA28E0280800F8000430780248
:1001C8000318E728E828AA29083074020318ED283C
:1001D800EE28AA297503031DF228F3284A29342991
:1001E8000130F600740AFA280310F60DFF3E031DCD
:1001F800F8287608FF007F08831203138504AA29CC
:100208000130F600740A0A290310F60DFF3E031D9B
:1002180008297608FF007F08831203138604AA2999
:100228000130F600740A1A290310F60DFF3E031D6B
:1002380018297608FF007F08831203138704AA2968
:100248000130F600740A2A290310F60DFF3E031D3B
:1002580028297608FF007F08831203138804AA2937
:100268007808F600F7017708003A03193C29AA290B
:100278007608003A0319F428013A03190429033AC5
:1002880003191429013A03192429AA297508031DF9
:100298004E294F29AA2994290130F600740A5629B3
:1002A8000310F60DFF3E031D54297608FF3AFF00A0
:1002B8007F08831203138505AA290130F600740A02
:1002C80067290310F60DFF3E031D65297608FF3ADE
:1002D800FF007F08831203138605AA290130F60060
:1002E800740A78290310F60DFF3E031D7629760857
:1002F800FF3AFF007F08831203138705AA290130FC
:10030800F600740A89290310F60DFF3E031D87299C
:100318007608FF3AFF007F08831203138805AA298D
:100328007808F600F7017708003A03199C29AA29EA
:100338007608003A03195029013A03196129033A4A
:1003480003197229013A03198329AA2908000A12F4
:100358008A1180220A128A11F401F501F50A003087
:100368000A128A1117200A128A11F401F5010030C5
:100378000A128A11E1200A128A11F40102300A12C3
:100388008A112E220A128A11FF30FF007F08F4001A
:1003980002300A128A11F9210A128A1106308312D0
:1003A8000313A2001330A100AD30A000A00BDA297E
:1003B800A10BDA29A20BDA29F40102300A128A11F8
:1003C800F9210A128A11063083120313A20013308E
:1003D800A100AD30A000A00BEF29A10BEF29A20BC3
:1003E800EF29C8290A128A111028F700172A740859
:1003F800FF007F088312031385002D2A7408FF006D
:100408007F088312031386002D2A7408FF007F08D3
:100418008312031387002D2A7408FF007F088312B4
:10042800031388002D2A7708F500F6017608003AAC
:1004380003191F2A2D2A7508003A0319FB29013AC6
:100448000319022A033A0319092A013A0319102A3F
:100458002D2A0800F7004C2A7408FF007F0883162D
:1004680003138500622A7408FF007F0883160313AC
:100478008600622A7408FF007F088316031387002A
:10048800622A7408FF007F08831603138800622A13
:100498007708F500F6017608003A0319542A622A0B
:1004A8007508003A0319302A013A0319372A033A22
:1004B80003193E2A013A0319452A622A08000B0843
:1004C800F00001300310F00CFF3E031D662A701C7B
:1004D8006E2A6F2A772A0130FF007F088506FD30D3
:1004E800FF007F088B057308FF0072088A00710EF1
:1004F8008300FE0E7E0E0900F401F50101300A1298
:100508008A1117200A128A118316031301170B1672
:040518008B17080035
:02400E00713F00
:00000001FF
