:020000040000FA
:100000000A128A11FC2F00308A000408840A820731
:1000100000343F3406345B344F3466346D347D3401
:1000200007347F346F343F3406345B344F346634E6
:0A0030006D347D3407347F346F34E3
:100646004130FF007F08831203139F008030FF00B4
:100656007F08831603139F000800F5000530FF008E
:100666007F08F000F10100300A128A1168260A128A
:100676008A110430FF007F08F000F101F10A003012
:100686000A128A1168260A128A1175080B3E84001E
:100696000A128A1103200A128A11FF007F08F0004D
:1006A60003300A128A11B8230A128A110800F500CB
:1006B6000430FF007F08F000F10100300A128A11B1
:1006C60068260A128A110530FF007F08F000F10142
:1006D600F10A00300A128A1168260A128A11750870
:1006E600013E84000A128A1103200A128A11FF00B1
:1006F6007F08F00003300A128A11B8230A128A1101
:100706000800F30008307302031C8A2B8B2B8E2BF8
:10071600F001F101B72B7308F20002300310F20D5D
:10072600FF3E031D912B0310720DFF007F088312FD
:1007360003139F041330F200F20B9F2BA22B83129C
:1007460003131F151F08F20002300310F20CFF3EC0
:10075600031DA82B7218B02BB12BA52B1E08F10078
:10076600831603131E08F0000800F300D62B70084A
:10077600FF007F08831203138500EC2B7008FF002F
:100786007F08831203138600EC2B7008FF007F0896
:10079600831203138700EC2B7008FF007F08831277
:1007A60003138800EC2B7308F100F2017208003A7B
:1007B6000319DE2BEC2B7108003A0319BA2B013A08
:1007C6000319C12B033A0319C82B013A0319CF2B7E
:1007D600EC2B0800F3000B2C7008FF007F08831633
:1007E60003138500212C7008FF007F08831603136E
:1007F6008600212C7008FF007F08831603138700EC
:10080600212C7008FF007F08831603138800212C13
:100816007308F100F2017208003A0319132C212C17
:100826007108003A0319EF2B013A0319F62B033A24
:100836000319FD2B013A0319042C212C080004305E
:10084600FF007F08F000F101F10A00300A128A1158
:1008560032270A128A110530FF007F08F000F101E5
:10086600F10A00300A128A1132270A128A11F0019F
:1008760003300A128A11ED230A128A110430FF008E
:100886007F08F000F10100300A128A1168260A1268
:100896008A110530FF007F08F000F10100300A12CE
:1008A6008A1168260A128A110800F401F5017008F7
:1008B600710403195F2C602C972CF601F60A6E2C36
:1008C60001300310F00DF10DFF3E031D642C0130C5
:1008D600FF007F08F607F11F712C722C632C013084
:1008E6000310F40DF50DFF3E031D732C7108730202
:1008F600031D7F2C70087202031C822C832C8A2C09
:100906007008F2027108031CF303F3027414013039
:100916000310F10CF00CFF3E031D8B2C0130F60288
:10092600031D962C972C722C7508F1007408F000A4
:1009360008000030FC000030FB000030FA000030F8
:10094600F900701CA72CA82CBF2C7408F907750891
:1009560003110318013E0319B12CFA077608031197
:100966000318013E0319B82CFB0777080311031877
:10097600013E0319BF2CFC070130F8000310F40DEB
:10098600F50DF60DF70DF80BC12C01300310F30C25
:10099600F20CF10CF00CFF3E031DC92C7308720417
:1009A60071047004031DD82CD92CA42C7C08F300E8
:1009B6007B08F2007A08F1007908F0000800F501DA
:1009C600F31FE62CE72CEE2CF209F309F20A0319C1
:1009D600F30AF501F50AF11FF12CF22CF72CF009B8
:1009E600F109F00A0319F10A700871040319FC2CC5
:1009F600FD2C2C2DF401F40A0B2D01300310F00D03
:100A0600F10DFF3E031D012D0130FF007F08F407A5
:100A1600F11F0E2D0F2D002D71087302031D152DCC
:100A260070087202031C182D192D1F2D7008F20272
:100A36007108031CF303F30201300310F10CF00CF0
:100A4600FF3E031D202D0130F402031D2B2D2C2DFE
:100A56000F2D75080319302D312D362DF209F309A6
:100A6600F20A0319F30A7308F1007208F00008008D
:100A7600FC000A30F0000030F1007C08F800F901B3
:100A86007808F2007908F3000A128A11E2240A12A1
:100A96008A117008FF007F08FA000A30F000003063
:100AA600F1007C08F800F9017808F2007908F300F3
:100AB6000A128A1199250A128A117008FF007F0806
:100AC600FB00FD017A080A128A115A230A128A11BA
:100AD6001A30F900F830F800F80B6F2DF90B6F2D6E
:100AE60000007B080A128A1130230A128A111A3072
:100AF600F900F830F800F80B7E2DF90B7E2D00007A
:100B06000130FF007F08FD0732307D02031C8C2D6B
:100B16008D2D652D0430FF007F08F000F1010030B7
:100B26000A128A1168260A128A110800F501F11FB5
:100B36009D2D9E2DA52DF009F109F00A0319F10A44
:100B4600F501F50AF31FA82DA92DB22DF209F30917
:100B5600F20A0319F30A0130FF007F08F506F601D1
:100B6600F701700871040319B92DBA2DF12DF4019E
:100B7600F40AC82D01300310F00DF10DFF3E031DE0
:100B8600BE2D0130FF007F08F407F11FCB2DCC2DC1
:100B9600BD2D01300310F60DF70DFF3E031DCD2DC3
:100BA60071087302031DD92D70087202031CDC2D17
:100BB600DD2DE42D7008F2027108031CF303F30225
:100BC600761401300310F10CF00CFF3E031DE52DE9
:100BD6000130F402031DF02DF12DCC2D75080319FB
:100BE600F52DF62DFB2DF609F709F60A0319F70A76
:100BF6007708F1007608F00008000230FF007F0851
:100C0600F000F10100300A128A1132270A128A1105
:100C16000A128A1123230A128A110A128A1122241D
:100C26000A128A1102300A128A1184230A128A11C0
:100C3600710883120313A5007008A4002408F000AD
:100C46002508F100F201F3010030F7000030F6004C
:100C56001330F5008830F4000A128A119C240A1217
:100C66008A11700883120313A0007108A10072088C
:100C7600A2007308A3000A300310A30CA20CA10C57
:100C8600A00CFF3E031D3F2E2108A7002008A6004A
:100C96000A30F0000030F1002708F3002608F200C1
:100CA6000A128A1158240A128A117008FF007F0856
:100CB60083120313A80028080A128A113B250A1278
:100CC6008A11152E0A128A110028F40004307402C3
:100CD60003186E2E6F2E312F083070020318742EF3
:100CE600752E312F7103031D792E7A2ED12EBB2E30
:100CF6000130F200700A812E0310F20DFF3E031D33
:100D06007F2E7208FF007F08831203138504312F9C
:100D16000130F200700A912E0310F20DFF3E031D02
:100D26008F2E7208FF007F08831203138604312F6B
:100D36000130F200700AA12E0310F20DFF3E031DD2
:100D46009F2E7208FF007F08831203138704312F3A
:100D56000130F200700AB12E0310F20DFF3E031DA2
:100D6600AF2E7208FF007F08831203138804312F09
:100D76007408F200F3017308003A0319C32E312FE9
:100D86007208003A03197B2E013A03198B2E033A97
:100D960003199B2E013A0319AB2E312F7108031D3F
:100DA600D52ED62E312F1B2F0130F200700ADD2EE4
:100DB6000310F20DFF3E031DDB2E7208FF3AFF0003
:100DC6007F08831203138505312F0130F200700A64
:100DD600EE2E0310F20DFF3E031DEC2E7208FF3AB5
:100DE600FF007F08831203138605312F0130F200BE
:100DF600700AFF2E0310F20DFF3E031DFD2E720832
:100E0600FF3AFF007F08831203138705312F013055
:100E1600F200700A102F0310F20DFF3E031D0E2F75
:100E26007208FF3AFF007F08831203138805312FEB
:100E36007408F200F3017308003A0319232F312FC7
:100E46007208003A0319D72E013A0319E82E033A1D
:100E56000319F92E013A03190A2F312F0800F4005D
:100E6600043074020318382F392FFB2F0830700214
:100E760003183E2F3F2FFB2F7103031D432F442FD3
:100E86009F2F892F0130F200700A4B2F0310F20DAD
:100E9600FF3E031D492F7208FF3AFF007F088316A5
:100EA60003138505FB2F0130F200700A5C2F031037
:100EB600F20DFF3E031D5A2F7208FF3AFF007F080E
:100EC600831603138605FB2F0130F200700A6D2F7F
:100ED6000310F20DFF3E031D6B2F7208FF3AFF0051
:100EE6007F08831603138705FB2F0130F200700A73
:100EF6007E2F0310F20DFF3E031D7C2F7208FF3A72
:100F0600FF007F08831603138805FB2F7408F20081
:100F1600F3017308003A0319912FFB2F7208003A68
:100F26000319452F013A0319562F033A0319672F60
:100F3600013A0319782FFB2F7108031DA32FA42F45
:100F4600FB2FE52F0130F200700AAB2F0310F20DD4
:100F5600FF3E031DA92F7208FF007F0883160313A7
:100F66008504FB2F0130F200700ABB2F0310F20D2F
:100F7600FF3E031DB92F7208FF007F088316031377
:100F86008604FB2F0130F200700ACB2F0310F20DFE
:100F9600FF3E031DC92F7208FF007F088316031347
:100FA6008704FB2F0130F200700ADB2F0310F20DCD
:100FB600FF3E031DD92F7208FF007F088316031317
:100FC6008804FB2F7408F200F3017308003A031932
:100FD600ED2FFB2F7208003A0319A52F013A0319CA
:100FE600B52F033A0319C52F013A0319D52FFB2F45
:0A0FF600080083010A128A11002E80
:02400E00713F00
:00000001FF
